:020000040000FA
:0400000080313D28E6
:10000800FE00030EFF0008082000C9000408BA001B
:100018006308C0000508B9007508BC007908BD0070
:100028007008BE007408BF000A08BB008A012100DE
:10003800911E24282000911E24289E2391122428F2
:1000480020003A0884004008E300390885003C088D
:10005800F5003D08F9003E08F0003F08F4003B08B1
:100068008A00490888007F0E8300FE0E7E0E090074
:10007A007D2375238F2354238B170B172100911689
:10008A002000B001B10121000C10C83086002230D6
:10009A0087008330F7000530F80020006325203000
:1000AA00E800E901D123C830860022308700F60132
:1000BA00C830840022308500B424B230F7000530FD
:1000CA00F80067258730F7000530F8006725B73054
:1000DA00840022308500B4248A30F7000530F80005
:1000EA006725C830840022308500760880005521B3
:1000FA00210AE300F5006530F900C1247008A10067
:10010A00B230860022308700F6017D30F7000530D4
:10011A00F80067258E30F7000530F8006725B23001
:10012A0084002230850076088000B230D700223061
:10013A00D8002108AC00AD0113223230F200F301DD
:10014A0099213108300203193429372165302002F8
:10015A00031D33293721A008031D2F293721200326
:10016A00031DDA289330D7008530D8000130E80023
:10017A00E901D123B230860022308700F60193309C
:10018A00F7000530F8006725B73084002230850073
:10019A00B424B23084002230850076088000B23060
:1001AA00D9002230DA00AF212E2906302002031DA1
:1001BA002E2937212008AB0022000C1020002B1C0E
:1001CA00E82822000C1420002B03031D2E290530D9
:1001DA00E100B230860022308700F6017A30F7005B
:1001EA000530F80067259830F7000530F8006725D4
:1001FA00B23084002230850076088000B230D70001
:10020A002230D800AC01F830AD00AE01AF01F121C7
:10021A00B230860022308700F6017A30F7000530C6
:10022A00F80067259D30F7000530F8006725B230E1
:10023A0084002230850076088000B230D700223050
:10024A00D800AC01F830AD00AE01AF01F121E10BED
:10025A00EE2833292003031D33295521A6287D289A
:10026A00630035293008F5003108F9007D24F009CA
:10027A007008E3006309E70067183729F13031078E
:10028A008400E3012230633D85000008A000310AA2
:10029A00E300F500FF30F900C1247008B10008003E
:1002AA009330D7008530D800E801E901D123AD3079
:1002BA00860022308700F6019330F7000530F800F7
:1002CA006725B730840022308500B424AD3084001D
:1002DA002230850076088000AD30D9002230DA005D
:1002EA00AF21EE30F2000230F3009921AD308600E2
:1002FA0022308700F6018030F7000530F8006725C4
:10030A00A230F7000530F8006725AD3084002230AE
:10031A00850076088000AD30D7002230D800C8307A
:10032A00D9002230DA00CD29F30A0E30F100BD30AF
:10033A00F000F00B9E29F10B9C29F20B9A29F30B82
:10034A009A290800E830F2000330F3009921F40BEF
:10035A00A72908005708DE005808DF000130A2006C
:10036A003122B030DE008530DF000130A2003122B8
:10037A005908DE005A08DF000130A2003122FF309E
:10038A00C1004323FF30C1004323FF30C100432B88
:10039A005708DE005808DF000130A2003122AE30D3
:1003AA00DE008530DF000130A20031222230C10098
:1003BA0043235908DE005A08DF000130A200312227
:1003CA002230C1004323FF30C1004323FF30C10064
:1003DA004323FF30C100432B5708DE005808DF00D3
:1003EA000130A2003122AE30DE008530DF0001305C
:1003FA00A20031222C08C2002D08C3002E08C40016
:10040A002F08C5000130A200E122FF30C1004323BA
:10041A00FF30C1004323FF30C100432B5708DE00E1
:10042A005808DF000130A2003122AE30DE008530EC
:10043A00DF000130A20031222C08C6002D08C700B7
:10044A000130A200CF22FF30C1004323FF30C10098
:10045A004323FF30C100432B5E0884005F088500F8
:10046A000008B400B40803194D2AE001013034022F
:10047A00031C4D2AE00A60085E07840000305F3DD5
:10048A0085000008C1004A2334086002031C3F2A81
:10049A000800B3014208F5004308F6001030F900DD
:1004AA002730FA00A124F009701C6F2A4208F500CF
:1004BA004308F6001030F9002730FA00D5247508F1
:1004CA00B3007008C2007108C30030303307C1009E
:1004DA004A237B2A4208F5004308F600E830F9006F
:1004EA000330FA00A124F009701C8F2A4208F50093
:1004FA004308F600E830F9000330FA00D5247508FD
:10050A00B3007008C2007108C30030303307C1005D
:10051A004A239A2A4208F5004308F6006430F90093
:10052A00FA01A124F009701CAD2A4208F50043081B
:10053A00F6006430F900FA01D5247508B300700892
:10054A00C2007108C30030303307C1004A23B82AF9
:10055A004208F5004308F6000A30F900FA01A1241E
:10056A00F009701CCA2A4208F5004308F6000A304E
:10057A00F900FA01D5247508B3007008C2007108A1
:10058A00C30030303307C1004A2330304207C1006C
:10059A0043230800C71FDC2A2D30C1004323460924
:1005AA00C2004709C300C20A0319C30AE02A46085F
:1005BA00C2004708C3004E2ADD01DD0ABD305D07CF
:1005CA008400E7012230673D85004208F5004308B0
:1005DA00F6004408F7004508F8000A30F900FA0165
:1005EA00FB01FC010925700880007508C200760825
:1005FA00C3007708C4007808C5004208F50043081C
:10060A00F6004408F7004508F800F901FA01FB0171
:10061A00FC018E24F0097018E22A5D0AE00001301C
:10062A005D02031C282BE003BD3060078400E7014C
:10063A002230673D850030300007C1004A23600838
:10064A00013C031C182B08000130A2002F2341088B
:10065A00AA0008002203031D412BFF30C100911E8E
:10066A00342B911E3C2B230019082000C1002300C3
:10067A009D1C412B1D121D1620000800111E432B24
:10068A00410823009A00200008002203031D522B70
:10069A00111E4D2B410823009A0020000800A801D2
:1006AA00A901B501B601B701B8010130F400A721CB
:1006BA00FF30C1004323FF30C1004323FF30C10094
:1006CA004323A930DB008530DC00FF30B200B923B8
:1006DA00A301A4010630A700A5010130A600080065
:1006EA0015303C00A40014303D00A400200008008E
:1006FA002100191799161916991199179E131D1089
:10070A0023008C018E0122009313911320008C0187
:10071A008E0108000130A200403023009B00033004
:10072A009C009F151E151E129E169D171D16200051
:10073A0008002923F13030078400E3012230633DA9
:10074A0085002A0880003008EA00300AE300F50034
:10075A00FF30F900C1247008B00031083002031DCF
:10076A00B82B6A08B00008005B08DE005C08DF00EE
:10077A000130A2003122B208031DC72B2C30C10060
:10078A004323D02BFF30C1004323FF30C100432352
:10079A00FF30C10043230800CA016808F500690850
:1007AA00F6001030F9002730FA00A124F009701C75
:1007BA00F92B6808F5006908F6001030F9002730AF
:1007CA00FA00D5247508E2007008E8007108E9000B
:1007DA00CA0AB7304A078400E7012230673D85001C
:1007EA00303062078000052C6808F5006908F600B9
:1007FA00E830F9000330FA00A124F009701C202C1B
:10080A006808F5006908F600E830F9000330FA00D4
:10081A00D5247508E2007008E8007108E900CA0AE0
:10082A00B7304A078400E7012230673D850030303F
:10083A00620780002B2C6808F5006908F60064300E
:10084A00F900FA01A124F009701C452C6808F5008A
:10085A006908F6006430F900FA01D5247508E20047
:10086A007008E8007108E900CA0AB7304A0784002C
:10087A00E7012230673D8500303062078000502C46
:10088A006808F5006908F6000A30F900FA01A1249F
:10089A00F009701C692C6808F5006908F6000A302E
:1008AA00F900FA01D5247508E2007008E800710819
:1008BA00E900CA0AB7304A078400E7012230673DD7
:1008CA008500303062078000CA0AB7304A078400C0
:1008DA00E7012230673D85003030680780007008E4
:1008EA00E8007108E9004A082800D700200008003B
:1008FA00F001750879020319F0090800F00175087A
:10090A007902031D080076087A02031D0800F0091F
:10091A000800F00175087902031D080076087A02BA
:10092A00031D080077087B02031D080078087C0273
:10093A00031D0800F0090800F00176087A02031C7A
:10094A0008007A087602031CAE2C7908750203188F
:10095A000800F00908000008F5008100B72C00081B
:10096A00F500F607F50803190800013141310008BE
:10097A008100F50BBA2C0800F90803190800F001E8
:10098A000830F4000310F50DF00D7908F002751423
:10099A000318D22C75107908F007F40BC72C08003D
:1009AA007508F7007608F8007908FB007A08FC0059
:1009BA00F201F3017B08F5007C08F600F901FA015F
:1009CA008324701CEB2CF501F60108001030F400AA
:1009DA000310F70DF80DF20DF30D7B08F2027C08F7
:1009EA00F33B77140318FE2C77107B08F2077C0878
:1009FA00F33DF40BED2C7708F5007808F600720841
:100A0A00F0007308F10008007508CB007608CC00E6
:100A1A007708CD007808CE007908CF007A08D00090
:100A2A007B08D1007C08D200D301D401D501D601BC
:100A3A004F08F5005008F6005108F7005208F80070
:100A4A00F901FA01FB01FC018E24701C312DF5011C
:100A5A00F601F701F80108002030F4000310CB0D6D
:100A6A00CC0DCD0DCE0DD30DD40DD50DD60D4F0811
:100A7A00D3025008D43B5108D53B5208D63B4B14FD
:100A8A000318502D4B104F08D3075008D43D510876
:100A9A00D53D5208D63DF40B332D4B08F5004C08D2
:100AAA00F6004D08F7004E08F8005308F000540805
:100ABA00F1005508F2005608F30008007325F50006
:100ACA0081006A2D7325F500F607F5080319080059
:100ADA00732541318100F50B6D2D080078088A00D5
:100AEA007708F70A0319F80A82000234723430349C
:100AFA0002346E34303402347434333403345034B0
:100B0A004934433402342034403403344D34683495
:100B1A007A3404342E34763461346C3404347034C8
:100B2A0061346734653404342E34623463346F3488
:100B3A0004342E34703463346F3404342E347434F1
:100B4A007834743401342D34043472346534733493
:100B5A00743401343D3401342034073431343634AA
:0A0B6A00463431343734303435346A
:020000040001F9
:04000E00A43FFF1EEE
:00000001FF
