:020000040000FA
:0400000006EF00F017
:0200080057D3CC
:10000C0033DB48DB0DDBF28EF28C9D8A1F6A206A93
:10001C0092901DEE17F0F80EF66E0A0EF76E63EC6A
:10002C0005F0080E606F616BC6DB1DEE17F0066AFB
:10003C000DEE17F0B6EC04F02E0EF66E0B0EF76EFE
:10004C0069EC05F0FC0EF66E0A0EF76E69EC05F025
:10005C000DEE06F0B6EC04F0000EF66E0B0EF76E1D
:10006C0069EC05F00DEE17F006C0EFFFD5D810289F
:10007C005A6E5AC005F0650E096EC1EC04F000C052
:10008C0010F01DEE01F0066AF00EF66E0A0EF76E19
:10009C0069EC05F0040EF66E0B0EF76E69EC05F0CC
:1000AC000DEE01F006C0EFFF010E4E6E0D0E4F6E01
:1000BC0010C01BF01C6A7BD9320E026E036AF1D899
:1000CC0020501F5CD8B485D087D8650E0D5CD8A4A1
:1000DC007FD082D80D52D8A477D07ED80D04D8A466
:1000EC0027D01DEE01F00A0EF66E0B0EF76E63ECC8
:1000FC0005F0010E4E6E0D0E4F6E010E606F616BB2
:10010C005ADB1CEEFCF0066A0A0EF66E0B0EF76E4E
:10011C0069EC05F00DEE06F0B6EC04F00CEEFCF01C
:10012C0006C0EFFFFC0E506E0C0E516ED0D84BD0AB
:10013C00060E0D5CD8A447D04FD80DC01AF089908C
:10014C001AB089801A04D8A43ED0050E586E1DEE44
:10015C0001F0066AEC0EF66E0A0EF76E69EC05F00D
:10016C00100EF66E0B0EF76E69EC05F00DEE01F04D
:10017C0006C0EFFF010E4E6E0D0E4F6E1B6AF80E91
:10018C001C6E1D6A1E6AEDD81DEE01F0066AEC0E9F
:10019C00F66E0A0EF76E69EC05F0160EF66E0B0E87
:1001AC00F76E69EC05F00DEE01F006C0EFFF010EE5
:1001BC004E6E0D0E4F6E1B6AF80E1C6E1D6A1E6A7B
:1001CC00D0D8582EC4D704D00D04D8A401D024D82C
:1001DC0077D74DD70300FED71FC005F020C009F01C
:1001EC008FDB001E00C05AF05A1C5E6E5EB0F4D756
:1001FC000DEE40F02050E926000EEA22EFCF0DF074
:10020C0020285A6E5AC005F0066A096A010E0A6E59
:10021C00C6DB00C020F012001CEEF7F00A0EF66EE2
:10022C000B0EF76E63EC05F0F70E4E6E0C0E4F6E68
:10023C00606B616BC0DA1CEEF2F0066A0A0EF66EA9
:10024C000B0EF76E69EC05F00DEE06F089DB0CEE8B
:10025C00F2F006C0EFFFF20E506E0C0E516E37D856
:10026C00EE0E026E020E036E1CD81CEEF7F0066A40
:10027C00F40EF66E0A0EF76E69EC05F01C0EF66EB7
:10028C000B0EF76E69EC05F00CEEF7F006C0EFFF05
:10029C00F70E4E6E0C0E4F6E170E506E0D0E516EFD
:1002AC0038D0032A040E016EA50E006E002EFED768
:1002BC00012EFAD7022EF6D7032EF4D71200E80E31
:1002CC00026E030E036EEDDF042EF9D712004EC042
:1002DC0055F04FC056F0010E116E8BD81CEEE8F0A5
:1002EC002C0EF66E0B0EF76EE8DBE80E556E0C0E50
:1002FC00566E010E116E7DD850C055F051C056F09F
:10030C00010E116E76D838687ED938687CD9386879
:10031C007AD14EC055F04FC056F0010E116E69D80F
:10032C001CEEEDF02A0EF66E0B0EF76EC6DBED0E24
:10033C00556E0C0E566E010E116E5BD8220E386E79
:10034C0062D950C055F051C056F0010E116E51D803
:10035C00220E386E58D9386856D9386854D938684E
:10036C0052D14EC055F04FC056F0010E116E41D80F
:10037C001CEEF7F02A0EF66E0B0EF76E9EDBF70EE8
:10038C00556E0C0E566E010E116E33D81BC039F023
:10039C001CC03AF01DC03BF01EC03CF0010E116EAB
:1003AC00D8D8386830D938682ED938682CD14EC096
:1003BC0055F04FC056F0010E116E1BD81CEEF7F025
:1003CC002A0EF66E0B0EF76E78DBF70E556E0C0ED2
:1003DC00566E010E116E0DD81BC03DF01CC03EF0C8
:1003EC00010E116EA4D838680ED938680CD938684B
:1003FC000AD155C0E9FF56C0EAFFEFCF23F02352D4
:10040C00D8B413D0576A010E235CD8A00ED0572A4B
:10041C0057505524E96E000E5620EA6EEFCF38F097
:10042C00F7D82350575CD8A0F2D71200226A39C0F3
:10043C0005F03AC006F0100E096E270E0A6E7DDA32
:10044C00001E00A014D039C005F03AC006F0100E02
:10045C00096E270E0A6EA3DA05C022F000C039F02F
:10046C0001C03AF0300E2224386ED2D80CD039C0EC
:10047C0005F03AC006F0E80E096E030E0A6E5DDA5E
:10048C00001E00A014D039C005F03AC006F0E80EEA
:10049C00096E030E0A6E83DA05C022F000C039F033
:1004AC0001C03AF0300E2224386EB2D80BD039C0CD
:1004BC0005F03AC006F0640E096E0A6A3EDA001EB8
:1004CC0000A013D039C005F03AC006F0640E096ED6
:1004DC000A6A65DA05C022F000C039F001C03AF0B2
:1004EC00300E2224386E94D80BD039C005F03AC0A7
:1004FC0006F00A0E096E0A6A20DA001E00A012D05D
:10050C0039C005F03AC006F00A0E096E0A6A47DADD
:10051C0005C022F000C039F001C03AF0300E2224A0
:10052C00386E76D8300E3924386E6DD812003EAE47
:10053C000BD02D0E386E67D83D1C396E3E1C3A6EB2
:10054C00392AD8B43A2A04D03DC039F03EC03AF02A
:10055C006DD7546A542A0DEE0CF05450E926000E57
:10056C00EA2239C005F03AC006F03BC007F03CC0A7
:10057C0008F00A0E096E0A6A0B6A0C6A44DA00C0AB
:10058C00EFFF05C039F006C03AF007C03BF008C0D9
:10059C003CF039C005F03AC006F03BC007F03CC057
:1005AC0008F0096A0A6A0B6A0C6AB8D9001E00B016
:1005BC00D1D75428576E010E545CD8A00FD05706D3
:1005CC000DEE0CF05750E926000EEA22300EEF2407
:1005DC00386E1ED857500108D8A0F1D71200010E62
:1005EC00116E03D838C019F012001104D8A40AD027
:1005FC0038689EAAFED79EBAAECF38F0ABA202D016
:10060C00AB98AB8812009EA8FED738C0ADFF120085
:10061C001104D8A404D09EA8FED738C0ADFF120098
:10062C00176A186A246A256A266A276A010E046EFC
:10063C0046DE3868E8DF3868E6DF3868E4DF1CEE51
:10064C00F7F0240EF66E0B0EF76E37DAF70E526ECD
:10065C000C0E536E21689AD8126A136A060E166E27
:10066C00146A010E156E12008F0ED316D38CD38A1A
:10067C00D398E06AF86AC09EC2900F015D955D97B1
:10068C005D995C915C935C95806A816A826A846AEC
:10069C0000011200010E116ECF0EAF6E7D6AA7869F
:1006AC00AC84AC98AB8EAB88AC8A1200E8CF0EF061
:1006BC00D8CF0FF0E0CF40F0E9CF29F0EACF28F007
:1006CC005AC031F005C032F006C033F009C034F026
:1006DC000AC035F000C036F007C02BF008C02CF073
:1006EC000BC02DF00CC02EF002C02FF003C030F068
:1006FC0004C02AF001C037F09DAA05D09EAA03D0F1
:10070C0029D89E9A00D029C0E9FF28C0EAFF31C041
:10071C005AF032C005F033C006F034C009F035C0D1
:10072C000AF036C000F02BC007F02CC008F02DC02A
:10073C000BF02EC00CF02FC002F030C003F02AC01A
:10074C0004F037C001F00EC0E8FF0FC0D8FF40C066
:10075C00E0FF100044DF0DEE40F01F50E926000EC4
:10076C00EA2219C0EFFF1FC062F01F285A6E5AC050
:10077C0005F0066A096A010E0A6E11D900C01FF055
:10078C0020501F5CD8B462C01FF0120052C055F04C
:10079C0053C056F0010E116E2CDE2152D8A404D099
:1007AC002C0E386E30DF06D038682DDF38682BDF22
:1007BC00386829DF1200416A60C005F061C006F09C
:1007CC00100E096E270E0A6EB8D8001E00A01AD0A3
:1007DC0060C005F061C006F0100E096E270E0A6E9F
:1007EC00DED805C059F000C060F001C061F0412AAC
:1007FC000DEE06F04150E926000EEA22300E592487
:10080C00EF6E0CD060C005F061C006F0E80E096E0A
:10081C00030E0A6E92D8001E00A01AD060C005F01C
:10082C0061C006F0E80E096E030E0A6EB8D805C05A
:10083C0059F000C060F001C061F0412A0DEE06F0E5
:10084C004150E926000EEA22300E5924EF6E0BD0EF
:10085C0060C005F061C006F0640E096E0A6A6DD8BE
:10086C00001E00A019D060C005F061C006F0640E37
:10087C00096E0A6A94D805C059F000C060F001C036
:10088C0061F0412A0DEE06F04150E926000EEA22F5
:10089C00300E5924EF6E0BD060C005F061C006F02D
:1008AC000A0E096E0A6A49D8001E00A018D060C052
:1008BC0005F061C006F00A0E096E0A6A70D805C010
:1008CC0059F000C060F001C061F0412A0DEE06F055
:1008DC004150E926000EEA22300E5924EF6E412ACF
:1008EC000DEE06F04150E926000EEA22300E60258E
:1008FC00EF6E00C060F001C061F041C006FD120057
:10090C00006809500562006A1200006A095005620D
:10091C0012000A500662120000681200006A0950A8
:10092C00056212000A50066212000B500762120098
:10093C000C500862120000681200006A06500A5C33
:10094C00D8A012000A50065C04E30950055CD8B02C
:10095C001200001E1200EFCF05F005C0E7FF03D018
:10096C00EF50056E06260552D8B41200ECCFE4FF0A
:10097C00052EFCD712000952D8B41200006A080EDA
:10098C00046ED890053600360950005E0580D8B04C
:10099C0003D0059009500026042EF3D7120005C091
:1009AC0007F006C008F009C00BF00AC00CF0026A90
:1009BC00036A0BC005F00CC006F0096A0A6AA5DFD1
:1009CC0000A003D0056A066A1200100E046ED890BF
:1009DC0007360836023603360B50025E0C50035AAB
:1009EC000780D8B005D007900B5002260C5003227C
:1009FC00042EEDD707C005F008C006F002C000F0C9
:100A0C0003C001F0120005C042F006C043F007C05D
:100A1C0044F008C045F009C046F00AC047F00BC0CE
:100A2C0048F00CC049F04A6A4B6A4C6A4D6A46C0A1
:100A3C0005F047C006F048C007F049C008F0096A45
:100A4C000A6A0B6A0C6A6ADF00A005D0056A066A9E
:100A5C00076A086A1200200E046ED890423643369C
:100A6C00443645364A364B364C364D3646504A5E41
:100A7C0047504B5A48504C5A49504D5A4280D8B066
:100A8C0009D0429046504A2647504B2248504C229F
:100A9C0049504D22042EE1D742C005F043C006F068
:100AAC0044C007F045C008F04AC000F04BC001F04C
:100ABC004CC002F04DC003F012000900F5CF05F058
:100ACC00F5CFE7FF04D00900F550056E0626055258
:100ADC00D8B412000900F5CFE4FF052EFBD71200A5
:100AEC0002723000026E300002743300035049432E
:100AFC0002204000034D687A042E76616C0004706D
:100B0C0061676500042E62636F00042E70636F00D2
:100B1C00042E74787400012D047265737400013D09
:0C0B2C0001200831384632354B383000CB
:020000040030CA
:0E00000015087F7CFF0991FF0FC00FE00F4035
:00000001FF
