:020000040000FA
:0400000006EF00F017
:020008006FD3B4
:10000C0044DB3CDB5EDB16DBF28EF28C0E01C08B2C
:10001C001F6A206A879016EED7F0300EF66E0B0E24
:10002C00F76E00017FEC05F0200E606F616BDFDB7B
:10003C0016EED7F0066A06EED7F0D2EC04F0660E98
:10004C00F66E0B0EF76E85EC05F0340EF66E0B0E9D
:10005C00F76E85EC05F006EEC6F0D2EC04F0380E27
:10006C00F66E0B0EF76E85EC05F006EED7F006C0BB
:10007C00EFFFD5D810285A6E5AC005F0650E096EE0
:10008C00DDEC04F000C010F016EEC1F0066A280E8C
:10009C00F66E0B0EF76E85EC05F03C0EF66E0B0E45
:1000AC00F76E85EC05F006EEC1F006C0EFFFC10E51
:1000BC004E6E060E4F6E10C01BF01C6A7CD9320EB1
:1000CC00026E036AF1D820501F5CD8B485D087D853
:1000DC00650E0D5CD8A47FD082D80D52D8A477D0F1
:1000EC007ED80D04D8A427D016EEC1F0420EF66EC1
:1000FC000B0EF76E7FEC05F0C10E4E6E060E4F6EBA
:10010C00010E606F616B73DB16EEBCF0066A420E7B
:10011C00F66E0B0EF76E85EC05F006EEC6F0D2EC23
:10012C0004F006EEBCF006C0EFFFBC0E506E060EDF
:10013C00516ED0D84BD0060E0D5CD8A447D04FD8FA
:10014C000DC01AF082901AB082801A04D8A43ED046
:10015C00050E586E16EEC1F0066A240EF66E0B0EE6
:10016C00F76E85EC05F0480EF66E0B0EF76E85EC0F
:10017C0005F006EEC1F006C0EFFFC10E4E6E060E86
:10018C004F6E1B6AF80E1C6E1D6A1E6AEED816EEB8
:10019C00C1F0066A240EF66E0B0EF76E85EC05F0B8
:1001AC004E0EF66E0B0EF76E85EC05F006EEC1F0FA
:1001BC0006C0EFFFC10E4E6E060E4F6E1B6AF80E98
:1001CC001C6E1D6A1E6AD1D8582EC4D704D00D04DB
:1001DC00D8A401D024D877D74DD70300FED71FC0A1
:1001EC0005F020C009F0A8DB001E00C05AF05A1C14
:1001FC005E6E5EB0F4D707EE00F02050E926000EDC
:10020C00EA22EFCF0DF020285A6E5AC005F0066A8C
:10021C00096A010E0A6EDFDB00C020F0120016EE38
:10022C00B7F0420EF66E0B0EF76E7FEC05F0B70EC4
:10023C004E6E060E4F6E606B616BD9DA16EEB2F035
:10024C00066A420EF66E0B0EF76E85EC05F006EEA6
:10025C00C6F0A2DB06EEB2F006C0EFFFB20E506E97
:10026C00060E516E37D8EE0E026E020E036E1CD8BF
:10027C0016EEB7F0066A2C0EF66E0B0EF76E85ECCA
:10028C0005F0540EF66E0B0EF76E85EC05F006EECF
:10029C00B7F006C0EFFFB70E4E6E060E4F6ED70EC0
:1002AC00506E060E516E39D0032A0E0E016EBD0E25
:1002BC00006E002EFED7012EFAD7022EF6D7032E93
:1002CC00F4D71200E80E026E030E036EEDDF042E5F
:1002DC00F9D712004EC055F04FC056F0010E116EFA
:1002EC008CD816EEA8F0640EF66E0B0EF76E7FEC43
:1002FC0005F0A80E556E060E566E010E116E7DD8C9
:10030C0050C055F051C056F0010E116E76D83868B9
:10031C0080D938687ED938687CD14EC055F04FC032
:10032C0056F0010E116E69D816EEADF0620EF66E37
:10033C000B0EF76EDEDBAD0E556E060E566E010E15
:10034C00116E5BD8220E386E64D950C055F051C076
:10035C0056F0010E116E51D8220E386E5AD93868EB
:10036C0058D9386856D9386854D14EC055F04FC05A
:10037C0056F0010E116E41D816EEB7F0620EF66E05
:10038C000B0EF76EB6DBB70E556E060E566E010EE3
:10039C00116E33D81BC039F01CC03AF01DC03BF0B5
:1003AC001EC03CF0010E116ED8D8386832D93868AE
:1003BC0030D938682ED14EC055F04FC056F0010ED2
:1003CC00116E1BD816EEB7F0620EF66E0B0EF76EB2
:1003DC0090DBB70E556E060E566E010E116E0DD8D3
:1003EC001BC03DF01CC03EF0010E116EA4D8386845
:1003FC0010D938680ED938680CD155C0E9FF56C0F1
:10040C00EAFFEFCF23F02352D8B413D0576A010E72
:10041C00235CD8A00ED0572A57505524E96E000EF5
:10042C005620EA6EEFCF38F0FBD82350575CD8A09B
:10043C00F2D71200226A39C005F03AC006F0100E4D
:10044C00096E270E0A6E95DA001E00A014D039C072
:10045C0005F03AC006F0100E096E270E0A6EBBDAD4
:10046C0005C022F000C039F001C03AF0300E222451
:10047C00386ED6D80CD039C005F03AC006F0E80E6C
:10048C00096E030E0A6E75DA001E00A014D039C076
:10049C0005F03AC006F0E80E096E030E0A6E9BDA00
:1004AC0005C022F000C039F001C03AF0300E222411
:1004BC00386EB6D80BD039C005F03AC006F0640ED1
:1004CC00096E0A6A56DA001E00A013D039C005F076
:1004DC003AC006F0640E096E0A6A7DDA05C022F095
:1004EC0000C039F001C03AF0300E2224386E98D892
:1004FC000BD039C005F03AC006F00A0E096E0A6A34
:10050C0038DA001E00A012D039C005F03AC006F04F
:10051C000A0E096E0A6A5FDA05C022F000C039F0D3
:10052C0001C03AF0300E2224386E7AD8300E3924BD
:10053C00386E6FD812003EAE0BD02D0E386E69D8C7
:10054C003D1C396E3E1C3A6E392AD8B43A2A04D076
:10055C003DC039F03EC03AF06DD7546A542A06EECD
:10056C00CCF05450E926000EEA2239C005F03AC00E
:10057C0006F03BC007F03CC008F00A0E096E0A6A90
:10058C000B6A0C6A5CDA00C0EFFF05C039F006C0DC
:10059C003AF007C03BF008C03CF039C005F03AC057
:1005AC0006F03BC007F03CC008F0096A0A6A0B6A07
:1005BC000C6AD0D9001E00B0D1D75428576E010E4A
:1005CC00545CD8A00FD0570606EECCF05750E92655
:1005DC00000EEA22300EEF24386E22D85750010854
:1005EC00D8A0F1D71200010E116E03D838C019F043
:1005FC0012001104D8A40BD038680E01C8ABFDD77B
:10060C00C8BB98CF38F09CA202D09C989C88000163
:10061C0012000E01C8A9FDD738C099FF00011200C5
:10062C001104D8A405D00E01C8A9FDD738C099FF74
:10063C0000011200176A186A246A256A266A276A5A
:10064C00010E046E3FDE3868E4DF3868E2DF38689C
:10065C00E0DF16EEB7F05C0EF66E0B0EF76E49DAB5
:10066C00B70E526E060E536E2168ACD8126A136A1E
:10067C00060E166E146A010E156E1200090E0E018E
:10068C00F86F170EB06F00011200600E0E01D36FE1
:10069C00D56BD76BD86BD397D395D393D391060ED9
:1006AC00D96FE06AF86A0F015B955B9F0C6B146B5A
:1006BC001C6B309F349F8C6A8D6A8E6A906A000125
:1006CC001200010E116E400E9A6E030E9B6E9E86EA
:1006DC009D849D989D8A9C8E9C881200E8CF0EF07C
:1006EC00D8CF0FF0E0CF40F0E9CF29F0EACF28F0D7
:1006FC005AC031F005C032F006C033F009C034F0F6
:10070C000AC035F000C036F007C02BF008C02CF042
:10071C000BC02DF00CC02EF002C02FF003C030F037
:10072C0004C02AF001C037F00E01C0AB07D0C8AB33
:10073C0005D000012BD80E01C89B00D029C0E9FFC1
:10074C0028C0EAFF31C05AF032C005F033C006F0C1
:10075C0034C009F035C00AF036C000F02BC007F0E9
:10076C002CC008F02DC00BF02EC00CF02FC002F0E6
:10077C0030C003F02AC004F037C001F00EC0E8FF0F
:10078C000FC0D8FF40C0E0FF100000012CDF07EEC7
:10079C0000F01F50E926000EEA2219C0EFFF1FC01F
:1007AC0062F01F285A6E5AC005F0066A096A010EDB
:1007BC000A6E11D900C01FF020501F5CD8B462C063
:1007CC001FF0120052C055F053C056F0010E116EBE
:1007DC0014DE2152D8A404D02C0E386E1ADF06D0A9
:1007EC00386817DF386815DF386813DF1200416A84
:1007FC0060C005F061C006F0100E096E270E0A6E7F
:10080C00B8D8001E00A01AD060C005F061C006F078
:10081C00100E096E270E0A6EDED805C059F000C006
:10082C0060F001C061F0412A06EEC6F04150E926A5
:10083C00000EEA22300E5924EF6E0CD060C005F089
:10084C0061C006F0E80E096E030E0A6E92D8001E07
:10085C0000A01AD060C005F061C006F0E80E096E69
:10086C00030E0A6EB8D805C059F000C060F001C084
:10087C0061F0412A06EEC6F04150E926000EEA224C
:10088C00300E5924EF6E0BD060C005F061C006F03D
:10089C00640E096E0A6A6DD8001E00A019D060C0E3
:1008AC0005F061C006F0640E096E0A6A94D805C0A2
:1008BC0059F000C060F001C061F0412A06EEC6F0AC
:1008CC004150E926000EEA22300E5924EF6E0BD06F
:1008DC0060C005F061C006F00A0E096E0A6A49D8BC
:1008EC00001E00A018D060C005F061C006F00A0E12
:1008FC00096E0A6A70D805C059F000C060F001C0DA
:10090C0061F0412A06EEC6F04150E926000EEA22BB
:10091C00300E5924EF6E412A06EEC6F04150E926FE
:10092C00000EEA22300E6025EF6E00C060F001C0B0
:10093C0061F041C0C6F61200006809500562006AF9
:10094C001200006A0950056212000A500662120079
:10095C0000681200006A0950056212000A50066213
:10096C0012000B50076212000C5008621200006853
:10097C001200006A06500A5CD8A012000A50065CED
:10098C0004E30950055CD8B01200001E1200EFCF32
:10099C0005F005C0E7FF03D0EF50056E06260552A3
:1009AC00D8B41200ECCFE4FF052EFCD7120009528C
:1009BC00D8B41200006A080E046ED89005360036C2
:1009CC000950005E0580D8B003D005900950002670
:1009DC00042EF3D7120005C007F006C008F009C0BA
:1009EC000BF00AC00CF0026A036A0BC005F00CC0D5
:1009FC0006F0096A0A6AA5DF00A003D0056A066A38
:100A0C001200100E046ED8900736083602360336E4
:100A1C000B50025E0C50035A0780D8B005D00790DB
:100A2C000B5002260C500322042EEDD707C005F004
:100A3C0008C006F002C000F003C001F0120005C0AF
:100A4C0042F006C043F007C044F008C045F009C0AE
:100A5C0046F00AC047F00BC048F00CC049F04A6A97
:100A6C004B6A4C6A4D6A46C005F047C006F048C058
:100A7C0007F049C008F0096A0A6A0B6A0C6A6ADF57
:100A8C0000A005D0056A066A076A086A1200200EE3
:100A9C00046ED89042364336443645364A364B3689
:100AAC004C364D3646504A5E47504B5A48504C5A7D
:100ABC0049504D5A4280D8B009D0429046504A26EF
:100ACC0047504B2248504C2249504D22042EE1D71E
:100ADC0042C005F043C006F044C007F045C008F022
:100AEC004AC000F04BC001F04CC002F04DC003F006
:100AFC0012000900F5CF05F0F5CFE7FF04D009008F
:100B0C00F550056E06260552D8B412000900F5CF33
:100B1C00E4FF052EFBD7120002723000026E30008B
:100B2C00027433000350494302204000034D687A9D
:100B3C00042E76616C00047061676500042E62639C
:100B4C006F00042E70636F00042E74787400012DF6
:100B5C00047265737400013D01200831384632354A
:040B6C0051313000D3
:020000040030CA
:0C000000ECFFFEFF9FFFFFDFFFFFFFFF94
:00000001FF
