:0400000006EF00F017
:020008001000E6
:10000C00EFEC06F0E0EC06F05FEC06F062EC06F0CC
:10001C00C392C39AC380C498C4963A016A816B8117
:10002C000C0E416E000161EC06F03F0E926F3A0E21
:10003C00946F06EC05F0546A556A586A596A7F0E3B
:10004C00566E576A3F0E5A6E5B6A32C044F033C02C
:10005C0045F00BDA910E696F69073ADB69518D082F
:10006C00D8A0FAD7050E186E196A280E1A6E1B6ADC
:10007C0010EE9FF3AF0EF66E180EF76E41EC0CF00F
:10008C009F0E7D6F030E7E6F010E746FD3D913C05C
:10009C0014F032C044F033C045F051EC05F0730E4F
:1000AC00186E196A280E1A6E1B6A10EE9FF3B10EA9
:1000BC00F66E180EF76E41EC0CF09F0E7D6F030E72
:1000CC007E6F010E746FB6D913C014F032C044F0B9
:1000DC0033C045F051EC05F0780E696F010E116ECE
:1000EC00126A93D911C05EF012C05FF0150E106E3B
:1000FC0063EC08F06AC00EF00F6A0EC005F00FC07A
:10010C0006F0020E096E0A6AC1EC0BF005C011F084
:10011C0006C012F00EC005F00FC006F0640E096E9A
:10012C000A6A14EC0CF000C00EF001C00FF00EC007
:10013C0005F00FC006F0330E096E0A6AC1EC0BF025
:10014C0005C00EF006C00FF00EC085F00FC086F093
:10015C00C4EC0AF010EEA2F300EEA7F3AEEC0BF039
:10016C000EC005F00FC006F00A0E096E0A6A77EC95
:10017C000BF000A01BD0A20E7F6F030E806F010E40
:10018C00756F0DEC07F010EEA2F3066AB30EF66E67
:10019C00180EF76E49EC0CF000EED6F3B5EC0BF044
:1001AC0000EEA2F360001BF0EFFF50D00EC005F084
:1001BC000FC006F0640E096E0A6A77EC0BF000A013
:1001CC001DD0A20E7F6F030E806F010E766F020E94
:1001DC00756F4EEC07F010EEA2F3066AB70EF66ED2
:1001EC00180EF76E49EC0CF000EEADF3B5EC0BF01D
:1001FC0000EEA2F360001BF0EFFF28D0A20E7F6F81
:10020C00030E806F010E756F0DEC07F0A20E7F6F61
:10021C00030E806F020E766F020E756F4EEC07F0B8
:10022C0010EEA2F3066A00EED6F3B5EC0BF0BA0EA4
:10023C00F66E180EF76E49EC0CF000EEADF3B5EC63
:10024C000BF000EEA2F360001BF0EFFFDED85EC0F7
:10025C0089F05FC08AF02FEC0AF069C005F0066ADD
:10026C006CC009F06DC00AF027EC0CF000C081F0F6
:10027C0001C082F081C005F082C006F009680A6AEC
:10028C00F5EC0BF005509225606F5EC089F05FC0F5
:10029C008AF086D969C005F0066A20C009F021C031
:1002AC000AF027EC0CF000C081F001C082F081C094
:1002BC0005F082C006F009680A6AF5EC0BF00550EF
:1002CC00945D616F11C089F012C08AF02FEC0AF0B6
:1002DC0069C005F0066A6CC009F06DC00AF027EC25
:1002EC000CF000C081F001C082F081C005F082C02A
:1002FC0006F009680A6AF5EC0BF005509225936F2D
:10030C0011C089F012C08AF04BD969C005F0066A99
:10031C0020C009F021C00AF027EC0CF000C081F0DD
:10032C0001C082F081C005F082C006F009680A6A3B
:10033C00F5EC0BF00550945D956F5EC005F05FC059
:10034C0006F011C009F012C00AF069EC0BF0001EA7
:10035C0000A058D092C054F0556A94C058F0596A15
:10036C0060C056F0576A61C05AF05B6A446A456ACD
:10037C00AFEC0CF0370E546E556A160E586E596A67
:10038C003F0E566E576A260E5A6E5B6A32C044F0A8
:10039C0033C045F0AFEC0CF03F0E546E556A260E90
:1003AC00586E596A470E566E576A160E5A6E5B6A2D
:1003BC0032C044F033C045F0AFEC0CF0320E656F38
:1003CC00666B0A0E676F686BA20E776F030E786F01
:1003DC00010E446E456A1DEC06F092C054F0556A4D
:1003EC0094C058F0596A93C056F0576A95C05AF0A9
:1003FC005B6A010E446E456AAFEC0CF0140E026E93
:10040C00036A95D96FD60300FED711C009F012C04C
:10041C000AF07F0E056E066A77EC0BF000A005D093
:10042C007F0E115E000E125A04D0280E1126010EFA
:10043C0012221200136A6000F7F1E9FF6000FBF171
:10044C00EAFF6F00BCFF75F07553D8B412007451FD
:10045C00755DD8A0120074517D25E96E000E7E21C9
:10046C00EA6E6F00BCFF13F0120054C009F055C0C7
:10047C000AF056C005F057C006F077EC0BF000A060
:10048C000CD054C038F055C039F056C054F057C099
:10049C0055F038C056F039C057F058C009F059C063
:1004AC000AF05AC005F05BC006F077EC0BF000A028
:1004BC000CD058C038F059C039F05AC058F05BC055
:1004CC0059F038C05AF039C05BF0010E545C256EFF
:1004DC00000E5558266E54C009F055C00AF056C08F
:1004EC0005F057C006F077EC0BF000B023D0252AAE
:1004FC00D8B4262A25C03AF058C03BF044C02BF0A3
:10050C0045C02CF0E4EC07F025C03AF05AC03BF0A3
:10051C0044C02BF045C02CF0E4EC07F025C005F0EE
:10052C0026C006F056C009F057C00AF077EC0BF065
:10053C0000B0DDD7010E585C256E000E5958266EA2
:10054C0058C009F059C00AF05AC005F05BC006F05B
:10055C0077EC0BF000B023D0252AD8B4262A54C04F
:10056C003AF025C03BF044C02BF045C02CF0E4EC35
:10057C0007F056C03AF025C03BF044C02BF045C004
:10058C002CF0E4EC07F025C005F026C006F05AC0AC
:10059C0009F05BC00AF077EC0BF000B0DDD712006D
:1005AC0089C005F08AC006F0096A0A6A85EC0BF06E
:1005BC0000A00CD089C005F08AC006F009680A6852
:1005CC0027EC0CF000C089F001C08AF089C005F05E
:1005DC008AC006F0680E096E010E0A6EF5EC0BF07F
:1005EC0000C089F001C08AF0010E8E6F8F6B89C03C
:1005FC0009F08AC00AF05A0E056E066A85EC0BF0FB
:10060C0000C081F089C005F08AC006F00E0E096E9C
:10061C00010E0A6E85EC0BF081510014836F83A1DF
:10062C0002D08E698F6989C087F08AC088F05EEC31
:10063C000CF08CC089F08DC08AF089515A08896FF2
:10064C00816B8A5181598A6F89298B6F8BC007F016
:10065C0089EC0AF0906F916B8EC005F08FC006F09C
:10066C0090C009F091C00AF027EC0CF000C020F00B
:10067C0001C021F012005DC064F0030E7A6FD890B7
:10068C0064337A2FFCD7B00E64256E6F9AEC0CF0A5
:10069C000F0E5C14626F636B62C06EF09AEC0CF020
:1006AC005CC062F0636B040E7A6FD8906333623374
:1006BC007A2FFBD70F0E6215816F826B100E81257E
:1006CC00626F000E8221636F62C06EF09AEF0CF0C5
:1006DC00270E116E010E126E112AD8B4122AA1EC3B
:1006EC0007F011C005F012C006F0670E096E010E7E
:1006FC000A6E77EC0BF000B0EFD711681268112A74
:10070C00D8B4122AA1EC07F011C005F012C006F003
:10071C003F0E096E0A6A77EC0BF000B0F0D71200AE
:10072C00340E006E002EFED7052EFAD71200032AC7
:10073C00810E016E280E006E002EFED7012EFAD708
:10074C00022EF6D7032EF4D71200710E0760000CA0
:10075C000750700FF66E070ED8B0010FF76E080039
:10076C00F55012007000100C0A8822382008201056
:10077C0010808040040000002848466C00000028CF
:10078C0010001000407C008482304E78066C0C0007
:10079C00001028000464F8FE7CFEFEFE7CFE004087
:1007AC00FEFEFEFE7CFE7CFE4C027E3E7EC60EC233
:1007BC0000040008800040FE7070701010FE0040B5
:1007CC00FE00F8F870F810F89010783878881888CF
:1007DC000000002078710E0760000C0750FB0FF62C
:1007EC006E070ED8B0010FF76E0800F550120070AE
:1007FC00FE380A06CC667C700440103888A2701C47
:10080C0000000EFE5426920A38821010A010C02050
:10081C00A284C282288A940292926CAC282882020A
:10082C00922492828292128210828010800408821A
:10083C0012821292028040802810A2FE088204804C
:10084C0002A8908888A8FCA81090802082081088A4
:10085C00282810A87C80408050A0C810008210442A
:10086C00710E0760000C0750860FF66E080ED8B09C
:10087C00010FF76E0800F5501200707C7C0000EE42
:10088C00EE7CA8FEFE545494947C7C009E0028FEC2
:10089C0010AA0644447C7C6010C01092FEA28A24EC
:1008AC008A92E292926C6C442844A2F22292828246
:1008BC0092129210FE82288018108212A23292FE9E
:1008CC0080807010E092821082028004A888888850
:1008DC00A812A808FA8850FEF00888282808A890C2
:1008EC0080806020A0A86CFE6C1042710E07600026
:1008FC000C0750110FF66E090ED8B0010FF76E08E9
:10090C0000F55012007038FE0C0ACC667C200440B6
:10091C003810A288701C00000EFE54C844008238A7
:10092C001010001000088A809296FE8A9212925241
:10093C000000822828128224928244921292108201
:10094C007E44800420821242529202804080281001
:10095C008A8220FE048008A8888890A802A80880B3
:10096C007A8880080888283008A88040408050A0E9
:10097C00988200102044710E0760000C07509C0FE9
:10098C00F66E090ED8B0010FF76E0800F550120084
:10099C007010000A068822383E0820101080804013
:1009AC00040000002824C4A000000028100010003F
:1009BC00047C008C622072600E6C3C0000002810DD
:1009CC000C7CF86C44388202F4FE00028280FEFE3D
:1009DC007C0CBC8C64027E3E7EC60E8600400008F9
:1009EC008000F07040FE300478F000000000F0F061
:1009FC007010F8104040F8387888788800000010A3
:100A0C00783C6A3D6A6F6B706B6F2BD8B4702B009F
:100A1C00EEFFF36F51E9267051EA22EF6A6FC005C1
:100A2C00F070C006F0096A040E0A6E77EC0BF00049
:100A3C00B0EBD7F80E6F6F7069080E6F27000E7051
:100A4C00235C6A6FC05DF017DEBAEC09F0780E43D8
:100A5C006E48EC09F0400E436E48EC09F0386838EB
:100A6C002A27C043F048EC09F07F0E385CD8A0F779
:100A7C00D7BFEC09F06FC005F070C006F03F0E094F
:100A8C006E0A6A77EC0BF000B0D7D75C6A5D6AF33C
:100A9C00DD656B676B120044C005F045C006F03293
:100AAC00C009F033C00AF069EC0BF0001E00A00581
:100ABC00D0010E276E286A326A336A0F0E145E1547
:100ACC006A166A18C05CF01AC05DF0D5DD14C0055A
:100ADC00F0B20E096E72EC0BF0001E00C081F01427
:100AEC00C009F0CA0E056E72EC0BF0001E815100AD
:100AFC0014836F83A104D0010E1A5E000E1B5A22C0
:100B0C006A222A2204D8A405D014C007F01EDE24C1
:100B1C006E23D0020E225CD8A405D014C007F05A64
:100B2C00DE246E1AD0030E225CD8A405D014C007A4
:100B3C00F097DE246E11D0040E225CD8A405D014DC
:100B4C00C007F0D3DE246E08D0050E225CD8A404B6
:100B5C00D014C007F010DF246E1C6A1D6A236A23B0
:100B6C002A176A1F6A010E305CD8A04AD01F2A1EB1
:100B7C006A6B6B010E305CD8A03ED06B2B24A0129C
:100B8C00D015501824816F175081253A6E1C501ABD
:100B9C0024816F1E5081253B6E44C02BF045C02C28
:100BAC00F00DDA11D015501824816F175081253AA9
:100BBC006E1C501A24816F1E5081253B6E27C02B52
:100BCC00F028C02CF0FBD9315030026F00CCFF81E3
:100BDC00F0815118243A6E1C501A24816F1E5081DA
:100BEC00253B6E27C02BF028C02CF0E8D91E2A30EC
:100BFC00506B5DD8A0C2D7172A30501F5CD8A0B656
:100C0C00D7243230501C26000E1D22080E235CD82F
:100C1C00A0A6D730501526000E1622050E225CD841
:100C2C00A06FD7276A286A010E326E336A120060F1
:100C3C0000DFF1E9FF6000E3F1EAFF6F00BCFF3475
:100C4C00F03452D8B4120065C035F066C036F037B7
:100C5C006A010E345CD8A028D0372A35C018F0367B
:100C6C00C019F067C01AF068C01BF037507725E93F
:100C7C006E000E7821EA6E6F00BCFF14F00CDF31B1
:100C8C005030026F00CCFF81F081513524836F000E
:100C9C000E3620846F010E8325356E000E842136AE
:100CAC006E3450375CD8A0D8D735C065F036C066E6
:100CBC00F01200416ACFD21200276A286A010E3264
:100CCC006E336A050E316E070E2F6E2E6A010E30D2
:100CDC006E0268036A2CDD0C0E416EEDDF0F0E0206
:100CEC006E036A25DDAE0E6E6F9AEC0CF02E0E6E56
:100CFC006F9AEC0CF0D50E6E6F9AEC0CF0800E6EB9
:100D0C006F9AEC0CF0A80E6E6F9AEC0CF03F0E6E16
:100D1C006F9AEC0CF0D30E6E6F9AEC0CF06E6B9A23
:100D2C00EC0CF0400E6E6F9AEC0CF08D0E6E6F9A10
:100D3C00EC0CF0140E6E6F9AEC0CF0200E6E6F9A99
:100D4C00EC0CF0100E6E6F9AEC0CF0A10E6E6F9A0C
:100D5C00EC0CF0C80E6E6F9AEC0CF0DA0E6E6F9A0B
:100D6C00EC0CF0120E6E6F9AEC0CF0810E6E6F9A0A
:100D7C00EC0CF0CF0E6E6F9AEC0CF0D90E6E6F9AE5
:100D8C00EC0CF0F10E6E6F9AEC0CF0DB0E6E6F9AB1
:100D9C00EC0CF0400E6E6F9AEC0CF0A40E6E6F9A89
:100DAC00EC0CF0A60E6E6F9AEC0CF02ADEAF0E6E09
:100DBC006F9AEF0CF0220E3A01146F210E136F1381
:100DCC000EE16F140EE26F130E166F170EE56F0027
:100DDC00011200600E3901D96FDB6BDD6BDE6BD954
:100DEC0097D995D993D991080EDF6FE06AF86A3ECE
:100DFC0001F895F89F3A01406B506B606B3E01B85F
:100E0C009FBC9FCA6ACB6ACC6ACE6A000112006092
:100E1C0000FFF1E9FF600003F2EAFFEF52D8A404EF
:100E2C00D00301D66B000112006000FFF1E9FF60F6
:100E3C000003F2EAFF7551EF5CD8B009D06000FFF7
:100E4C00F1E9FF600003F2EAFF6F00BCFF75F07C74
:100E5C006B010E755DD8A019D07C2B7C517F25E9D8
:100E6C006E000E8021EA6E6F00B8FF73F073C072D3
:100E7C00F000EED6F37C51E926000EEA226000CB9E
:100E8C00F1EEFF75517C5DD8A0E7D775C0D6F31293
:100E9C00006000FFF1E9FF600003F2EAFFEF52D8B7
:100EAC00A404D00301AD6B00011200010E765DD8D5
:100EBC00B002D0010E766F6000FFF1E9FF60000315
:100ECC00F2EAFF7651EF5CD8B004D00301AD6B00B1
:100EDC0001120076076000FFF1E9FF600003F2EAFF
:100EEC00FF7651EF5C7C6F75517C5DD8A07CC07532
:100EFC00F07C6B010E755DD8A01BD07C2B7C5176E1
:100F0C0025816F7F25E96E000E8021EA6E6F00B897
:100F1C00FF72F072C073F000EEADF37C51E9260065
:100F2C000EEA226000CFF1EEFF75517C5DD8A0E592
:100F3C00D775C0ADF3120011C089F012C08AF089C8
:100F4C00DA69C005F0066A6CC009F06DC00AF027BA
:100F5C00EC0CF000C081F001C082F081C005F08281
:100F6C00C006F009680A6AF5EC0BF03F0E052493F5
:100F7C006F11C089F012C08AF0D6EC02F069C0057E
:100F8C00F0066A20C009F021C00AF027EC0CF00032
:100F9C00C081F001C082F081C005F082C006F0096A
:100FAC00680A6AF5EC0BF005503A08956F93C03A55
:100FBC00F095C03BF0010E2B6E2C6A00D03AC005A8
:100FCC00F0800E096E89DB001E00C081F03BC0056D
:100FDC00F0400E096E81DB001E81510010836F837F
:100FEC00B112003BC06FF0706B030E796FD890702C
:100FFC00336F33792FFBD7D890070E796F6F37701B
:10100C0037792FFCD76F513A24816F836B705183E2
:10101C0021826F010E81256F6F000E8221706F6F20
:10102C00C009F070C00AF0056A200E066E5ADB008B
:10103C00B0120000EEFFF36F51E9267051EA226FF7
:10104C0000BCFF2DF0070E3B14296E2BB004D0FE14
:10105C000E2A6ED88003D0010E2A6ED89029C07942
:10106C00F07953D8B403D02A36792FFDD72BB0049E
:10107C00D02D502A142D6E03D02D502A102D6E0019
:10108C00EEFFF36F51E9267051EA222D50EF5CD838
:10109C00B413D000EEFFF36F51E9267051EA2260D1
:1010AC0000B7F0EFFF3AC05CF03BC05DF041EC03E1
:1010BC00F02DC06EF0A4EC0CF012003E01F895601F
:1010CC000043F0F1FE1052D8A403D03A0140819FA6
:1010DC00D01004D8A403D03A01408399D0020E104A
:1010EC005CD8A403D03A01408592D0030E105CD892
:1010FC00A403D03A0140878BD0040E105CD8A40313
:10110C00D03A01408984D0050E105CD8A403D03AA3
:10111C0001408B7DD0060E105CD8A403D03A014060
:10112C008D76D0070E105CD8A403D03A01408F6F97
:10113C00D0080E105CD8A403D03A01508168D009B5
:10114C000E105CD8A403D03A01508361D00A0E1063
:10115C005CD8A403D03A0150855AD00B0E105CD841
:10116C00A403D03A01508753D00C0E105CD8A403C2
:10117C00D03A0150894CD00D0E105CD8A403D03A53
:10118C0001508B45D00E0E105CD8A403D03A015000
:10119C008D3ED00F0E105CD8A403D03A01508F377F
:1011AC00D0100E105CD8A403D03A01608130D0115D
:1011BC000E105CD8A403D03A01608329D0120E1013
:1011CC005CD8A403D03A01608522D0130E105CD8F1
:1011DC00A403D03A0160871BD0140E105CD8A40372
:1011EC00D03A01608914D0150E105CD8A403D03A03
:1011FC0001608B0DD0160E105CD8A403D03A0160A0
:10120C008D06D0170E105CD8A402D03A01608F3E28
:10121C0001F899010EFF6FF8991F0EFF6FF895F802
:10122C0095600043F0F1FEF88F020E056E000196FA
:10123C00EC03F03E01F8810000F8B1FED7F89F3ABC
:10124C0001406B506B606B6F00C0FB6AF03E01F8A5
:10125C009500011200C498C496800E3D01746F2154
:10126C000E756F030E7B6F040E736F796B766B7359
:10127C008F759F75997387000177D8436803D87968
:10128C00D8416A1200020E3F5CD8A41ED0426AFFFD
:10129C000E425CD8B013D0422A3D0178AB0AD00183
:1012AC000E6C6F60000FF16BFD000188D8A2D81294
:1012BC000004D0050E006E002EFED7E9D74228D8C8
:1012CC00A402D0020E3E124ED03F04D8A423D03D2F
:1012DC000178856C6B799160000FF16EFD426AFFAD
:1012EC000E425CD8B011D0422A79A108D0020E3F30
:1012FC006E406A74BB402A0001120005D0738B0546
:10130C000E006E002EFED7EBD74228D8A402D004D4
:10131C000E3E1228D0030E3F5CD8A424D03D01779A
:10132C00BBFDD76C6B60000FF16EFD7991426AFFCB
:10133C000E425CD8B012D0422A79A108D0020E3FDE
:10134C006E406A74BB402A0001120006D0738B7386
:10135C009D050E006E002EFED7EAD74228D8A402B7
:10136C00D0080E3E1200011200010E3F6E426A3E82
:10137C006A12003F6A426AFF0E425CD8B018D04233
:10138C002A3D0179A50FD000014CD8010E016E0049
:10139C006A002EFED7012EFBD7740E006E002EFEB7
:1013AC00D7120004D0050E006E002EFED7E4D742F3
:1013BC0028D8A402D0800E3E1200011200426AFF0F
:1013CC000E425CD8B00FD0422A3D0174BB06D0400F
:1013DC006A74BB402A0001120004D0050E006E0096
:1013EC002EFED7EDD74228D8A402D0200E3E1200F4
:1013FC00011200426AFF0E425CD8B00CD0422A3D6A
:10140C000173B703D00001120004D0050E006E006A
:10141C002EFED7F0D74228D8A402D0400E3E1200A0
:10142C00011200426AFF0E425CD8B00CD0422A3D39
:10143C000179A503D00001120004D0050E006E0046
:10144C002EFED7F0D74228D8A402D0800E3E120030
:10145C0001120089C005F08AC006F0096A0A6A4FB9
:10146C00D900A00ED08E698F6989C005F08AC0069C
:10147C00F009680A68E6D900C089F001C08AF00357
:10148C00D0010E8E6F8F6B89C005F08AC006F06894
:10149C000E096E010E0A6EA3D900C089F001C08A34
:1014AC00F089C009F08AC00AF0B40E056E066A27EE
:1014BC00D900A00BD08EC005F08FC006F009680AC9
:1014CC0068C0D900C08EF001C08FF089C087F08A47
:1014DC00C088F0EDD98CC089F08DC08AF089298B39
:1014EC006F8BC007F010D8906F916B8EC005F08F8A
:1014FC00C006F090C009F091C00AF0A3D900C06CEE
:10150C00F001C06DF012005C0E0760000C07502D4E
:10151C000FF66E150ED8B0010FF76E0800F55012CD
:10152C00005B0002030507090A0C0E1011131516B7
:10153C00181A1C1D1F2122242527292A2C2D2F3057
:10154C003234353638393B3C3E3F404243444547C4
:10155C0048494A4B4D4E4F5051525354555657577C
:10156C0058595A5B5B5C5D5D5E5F5F606061616199
:10157C0062626263636363646464646464756B85F0
:10158C00C005F086C006F0100E096E270E0A6EA973
:10159C00D8001E00A01AD085C005F086C006F01039
:1015AC000E096E270E0A6EE7D805C07BF000C085C9
:1015BC00F001C086F0752B00EEA7F37551E92600FB
:1015CC000EEA22300E7B25EF6E0CD085C005F0861E
:1015DC00C006F0E80E096E030E0A6E83D8001E00DA
:1015EC00A01AD085C005F086C006F0E80E096E037F
:1015FC000E0A6EC1D805C07BF000C085F001C08614
:10160C00F0752B00EEA7F37551E926000EEA223097
:10161C000E7B25EF6E0BD085C005F086C006F064FE
:10162C000E096E0A6A5ED8001E00A019D085C0058E
:10163C00F086C006F0640E096E0A6A9DD805C07B60
:10164C00F000C085F001C086F0752B00EEA7F37595
:10165C0051E926000EEA22300E7B25EF6E0BD08569
:10166C00C005F086C006F00A0E096E0A6A3AD80068
:10167C001E00A018D085C005F086C006F00A0E0921
:10168C006E0A6A79D805C07BF000C085F001C0866F
:10169C00F0752B00EEA7F37551E926000EEA223007
:1016AC000E7B25EF6E752B00EEA7F37551E9260026
:1016BC000EEA22300E8525EF6E00C085F001C08643
:1016CC00F075C0A7F31200006A0950056212000AF7
:1016DC005006621200006812000068095005600094
:1016EC006A1200006A06500A5CD8A012000A500662
:1016FC005C04E30950055CD8B01200001E12000017
:10170C006A06AE17D00ABE02D0001E1200051C07D6
:10171C006E061C086E072AD8B4082A091C056E0A26
:10172C001C066E052AD8B4062A07C009F008C00AA0
:10173C00F002D00ABE120006500A5CD8A012000AB1
:10174C0050065C04E30950055CD8B01200001E1270
:10175C00006F00BCFF05F0600017F0E7FF03D0EF4F
:10176C0050056E06260552D8B412006F00B3FFE484
:10177C00FF052EFBD7120005C007F006C008F009C4
:10178C00C00BF00AC00CF0026A036A0BC005F00C27
:10179C00C006F0096A0A6A97DF00A003D0056A0642
:1017AC006A1200100E046ED8900736083602360303
:1017BC00360B50025E0C50035A0780D8B005D00788
:1017CC00900B5002260C500322042EEDD707C005B7
:1017DC00F008C006F002C000F003C001F0120006D1
:1017EC00500A180D6E06AE05D0051E061E052AD829
:1017FC00B4062A0AAE05D0091E0A1E092AD8B40A54
:10180C002ABADF0DAE0AD0051E061E052AD8B4066C
:10181C002A001E011E002AD8B4012A120005500904
:10182C00026F00CCFF00F06F00D0FF01F005500AF2
:10183C0002F350012606500902F350012606520A03
:10184C0002120006500A180D6E06AE05D0051E06D3
:10185C001E052AD8B4062A0AAE05D0091E0A1E098E
:10186C002AD8B40A2ADBDF0DAE05D0001E011E00FB
:10187C002AD8B4012A120009006F00D4FF05F06FBA
:10188C0000D7FFE7FF04D00900F550056E062605CA
:10189C0052D8B4120009006F00D7FFE4FF052EFAEE
:1018AC00D712000130013503302E3002302E012EBC
:1018BC0087C009F088C00AF00E0E056E010E066E88
:1018CC001FDF00A009D0875168088C6F010E816F53
:1018DC00885181598D6F27D087C009F088C00AF0D4
:1018EC00B40E056E066A0CDF00A007D0B40E875D3F
:1018FC008C6F000E88598D6F16D087C009F088C088
:10190C000AF05A0E056E066AFBDE00A008D087515D
:10191C00B4088C6F816B885181598D6F04D087C04E
:10192C008CF088C08DF0120020DD780E436EABDC9D
:10193C00436AA9DC6EC043F0A6DC1CD516DD780E1C
:10194C00436EA1DC400E436E9EDC6EC043F09BDC0C
:10195C0011D5466A476A4A6A4B6A506A516A526A9A
:10196C00536A486A496A4C6A4D6A4E6A4F6A5450C7
:10197C00565C466E55505758476E58505A5C4A6ED6
:10198C0059505B584B6E46C009F047C00AF0056AC7
:10199C00066AB6DE00A004D0010E506E516A02D069
:1019AC00506851684AC009F04BC00AF0056A066AD3
:1019BC00A7DE00A004D0010E526E536A02D052680A
:1019CC00536850C005F051C006F046C009F047C03E
:1019DC000AF038DF00C046F001C047F052C005F0F5
:1019EC0053C006F04AC009F04BC00AF02BDF00C010
:1019FC004AF001C04BF046C005F047C006F0020E9D
:101A0C00096E0A6A1FDF00C048F001C049F04AC0E5
:101A1C0005F04BC006F0020E096E0A6A13DF00C017
:101A2C004CF001C04DF046C005F047C006F04AC06E
:101A3C0009F04BC00AF064DE001E00A048D04650EE
:101A4C004C5C4E6E47504D584F6E54C005F055C00F
:101A5C0006F056C009F057C00AF036DE001E00A092
:101A6C002BD054C03AF058C03BF044C02BF045C0CA
:101A7C002CF0E4EC07F050505426515055224EC037
:101A8C0005F04FC006F0096A0A6A3ADE00A005D0DC
:101A9C004C504E264D504F220ED048504C5C816F0E
:101AAC0049504D58826F81514E2682514F225250CF
:101ABC00582653505922C9D754C03AF058C03BF05D
:101ACC0044C02BF045C02CF0E4EC07F047D04A5052
:101ADC00485C4E6E4B5049584F6E58C005F059C07B
:101AEC0006F05AC009F05BC00AF0EEDD001E00A043
:101AFC002BD054C03AF058C03BF044C02BF045C03A
:101B0C002CF0E4EC07F052505826535059224EC09A
:101B1C0005F04FC006F0096A0A6AF2DD00A005D094
:101B2C0048504E2649504F220ED04C50485C816F85
:101B3C004D504958826F81514E2682514F22505040
:101B4C00542651505522C9D754C03AF058C03BF0D6
:0E1B5C0044C02BF045C02CF0E4EC07F0120062
:020000040030CA
:0A000000ECFFF7FF9FFFF8DFFFFFA2
:00000001FF
