:020000040000FA
:04000000803105281E
:100008000900BF21AA2155303C008F00AA308F007B
:100018000F100C303D0090000D303C00A40014304F
:100028003D009F0055303C008F00AA308F000F1410
:1000380021008E120C10FF302000A000A00A013011
:10004800A6002830A9002008A700A80164202708D6
:10005800A0000A30F200F3015620FF302002031CF2
:100068002228F430F2000130F3005620A001A0034A
:100078000130A6002830A9002008A700A8016420A4
:100088002708A0000A30F200F30156202008003C9F
:10009800031C3B28F430F2000130F30056201F28DF
:1000A80063005428F30A8E30F1000130F000F00BA1
:1000B8005B28F10B5928F20B5728F30B5728080037
:1000C800FF30AA00AB010130BD00E830F500033075
:1000D800F600F701F8012908F900FA01FB01FC0113
:1000E8000A227508A2007608A3007708A4007808F9
:1000F800A5002308003C03188D280430BD00031018
:10010800A50CA40CA30CA20C0310A50CA40CA30C06
:10011800A20C2308003C03189D281030BD000310D2
:10012800A50CA40CA30CA20C0310A50CA40CA30CE6
:10013800A20C2308003C0318AD284030BD00031072
:10014800A50CA40CA30CA20C0310A50CA40CA30CC6
:10015800A20C02303E02031DC42822089B001C107A
:100168009C1004303D0203191C1410303D02031981
:100178009C1440303D02031DC3281C149C14032901
:1001880004303E02031DE4282208280096001710B8
:100198009710043020003D02031DD42828001714AE
:1001A800103020003D02031DDB2828009714403042
:1001B80020003D02031DE328280017149714032983
:1001C80006303E02031D0329220828009D001E1048
:1001D8009E10043020003D02031DF42828001E1440
:1001E800103020003D02031DFB2828009E144030DB
:1001F80020003D02031D032928001E149E1403102D
:1002080020003E0CB8003803BC0025001E1020005A
:100218003C1C102925001E1425009E102000BC1C23
:10022800172925009E1420002603031D5F2902308C
:100238002207B8000030233DB9000030243DBA0041
:100248000030253DBB002708F5002808F600F70117
:10025800F8013808F9003908FA003A08FB003B08A9
:10026800FC0064227008A2007108A3007208A400B0
:100278007308A50023082500910020002708F50031
:100288002808F600F901FA01D321701C4D29250030
:100298009101250093151315931013101E102000BB
:1002A8003C1C582925001E1425009E102000BC1C4B
:1002B8005F2925009E14023020002602031DA8296C
:1002C80002302207B8000030233DB9000030243D39
:1002D800BA000030253DBB002708F5002808F600C5
:1002E800F701F8013808F9003908FA003A08FB0064
:1002F8003B08FC0064227008A2007108A300720881
:10030800A4007308A50023082500980020002708EA
:10031800F5002808F600F901FA01D321701C962986
:100328002500980125009A151A159A101A101E1101
:1003380020003C1CA12925001E1525009E11200027
:10034800BC1CA82925009E15200008000230BE000C
:10035800A1011A309B001C109C100D302500910043
:1003680020002112A116A1162112A1152115A110F4
:1003780021101C1508002100191799161912991532
:1003880099139E131D1023008C018D018E012200EC
:100398009313911320008C018D018E010800F00148
:1003A80075087902031D080076087A02031D080003
:1003B800F0090800F00175087902031D08007608A5
:1003C8007A02031D080077087B02031D08007808DD
:1003D8007C02031D0800F0090800F00178087C027F
:1003E800031C0800031D082A77087B02031C080069
:1003F800031D082A76087A02031C0800031D082A30
:100408007908750203180800F00908007508AC009F
:100418007608AD007708AE007808AF007908B0001C
:100428007A08B1007B08B2007C08B300B401B501BA
:10043800B601B7013008F5003108F6003208F700B8
:100448003308F800F901FA01FB01FC01DE21701CF8
:10045800322AF501F601F701F80108002030F4000E
:100468000310AC0DAD0DAE0DAF0DB40DB50DB60D41
:10047800B70D3008B4023108B53B3208B63B330833
:10048800B73B2C140318512A2C103008B407310834
:10049800B53D3208B63D3308B73DF40B342A2C0875
:1004A800F5002D08F6002E08F7002F08F80034088C
:1004B800F0003508F1003608F2003708F3000800AC
:1004C8007508AC007608AD007708AE007808AF0074
:1004D8007908B0007A08B1007B08B2007C08B30044
:1004E800B401B501B601B701301C822A2C08B40743
:1004F8002D08B53D2E08B63D2F08B73D0310B30CA7
:10050800B20CB10CB00C0310AC0DAD0DAE0DAF0DAF
:100518003008F9003108FA003208FB003308FC0003
:10052800F501F601F701F801F1217018782A34086D
:10053800F0003508F1003608F2003708F30008002B
:020000040001F9
:04000E00A43FFF1EEE
:00000001FF
