:020000020000FC
:1000000010C0189518951895189518951895189565
:08001000189518951895189534
:06001A00189518951895D9
:1000220050E05EBF5FE55DBF3DD02A9A299A5EB57A
:1000320050685EBD5EB55F7B5EBD5EB551605EBD04
:100042005EB552605EBD5DB558605DBD02E01DB536
:10005200102B1DBD57E052A932D053A150A954A173
:1000620051A957BD50A156BD329AD2E3E0E00ED05D
:100072003298D4E6E0E00AD0EDCF8895FECF99E140
:100082009A95F1F700C0BA95D1F70895E395AFE7D5
:1000920094E19A95F1F7AA95D9F7DA95C1F7EA951D
:1000A200B1F7089558ED5CBF50E057BF58ED5CBF03
:1000B20050E056BF50E052B950E056B9089552A1EF
:1000C2005BBBE798EA9AE998B2E0D9DFEF9AEE9A39
:1000D200EE99FECFEF9859B353A95AB354A9089594
:00000001FF
