:020000040000FA
:0400000006EF00F017
:020008001000E6
:10000C00BAD9CCD977D99380B888948894860C0EB9
:10001C000E6F19D9010E106F010E0A6F8ED91FEEDB
:10002C000DF0100EF66E040EF76ED9D90D0E156F7D
:10003C000F0E166F010E0A6F5FD9020E106F010EB4
:10004C000A6F7BD9010E106F010E0A6F76D91FEE65
:10005C000DF01E0EF66E040EF76EC1D90D0E156F57
:10006C000F0E166F010E0A6F47D90B690B2B0BC0C5
:10007C001BF0C3D8090E156F0F0E166F010E0A6F09
:10008C003BD91FEE0DF0220EF66E040EF76EA7D9BB
:10009C000D0E156F0F0E166F010E0A6F2DD90F0E68
:1000AC000B5DD8A0E3D70B690B2B0BC005F0100E22
:1000BC00096E81D900C00CF00C53D8A421D0010ECC
:1000CC00106F010E0A6F39D90BC01BF096D8090EB0
:1000DC00156F0F0E166F010E0A6F0ED90C5100081A
:1000EC00D8B00ED01FEE0DF0220EF66E040EF76E89
:1000FC0076D90D0E156F0F0E166F010E0A6FFCD808
:10010C001FEE0DF0220EF66E040EF76E68D90D0E72
:10011C00156F0F0E166F010E0A6FEED8C6D80F2989
:10012C00D8B423D00BC011F0ACD80D53D8A40DD03B
:10013C00116BA7D80BC01BF060D8090E156F0F0EF2
:10014C00166F010E0A6FD8D80ED01FEE0DF0240ECC
:10015C00F66E040EF76E43D90D0E156F0F0E166F5B
:10016C00010E0A6FC9D8ABD80ED01FEE0DF0280EB9
:10017C00F66E040EF76E33D90D0E156F0F0E166F4B
:10018C00010E0A6FB9D8FF0E0B5DD8A08DD7020EE9
:10019C00106F010E0A6FD1D81FEE0DF02C0EF66EFB
:1001AC00040EF76E1CD90D0E156F0F0E166F010E87
:1001BC000A6FA2D8020E106F010E0A6FBED8010E84
:1001CC00046E13D881B0FED725D70300FED7032ABF
:1001DC006C0E016E0B0E006E002EFED7012EFAD7A0
:1001EC00022EF6D7032EF4D71200E80E026E030E81
:1001FC00036EEDDF042EF9D71200020E0F01096F0A
:10020C000F0E00011B15196F0908D8B002D0070E8C
:10021C001927300E19250F010B6F0001196B192BC3
:10022C001B33040E195DD8A0FAD70F0E1B15196FCE
:10023C000908D8B002D0070E1927300E19250F0166
:10024C000A6F00011200C78EC688C69E0C0E0E5D8A
:10025C00D8A406D0C686C694C692C690090EC86E9F
:10026C000E53D8A404D0C696C684C682C690030E7C
:10027C000E5DD8A404D0C696C684C682C680C68A33
:10028C001200C69E11C0C9FF26D8C5AC02D00D699C
:10029C0001D00D6BC6AE04D00E510A08D8B0F1D700
:1002AC000E510A08D8B0C68812000E510A08D8B0F0
:1002BC0003D0C58010D802D0C7A6FED712000E51AD
:1002CC000A08D8B005D0C7B4FED7C58404D802D06C
:1002DC00C7A8FED712000F6B0F2BFF0E0F5DD8B007
:1002EC0008D09EA6F9D79E9612009EA6F5D79E968C
:1002FC00120012000E6B120015C0E9FF16C0EAFFC7
:10030C00EFCF12F01253D8B417D0176B010E125D49
:10031C00D8A012D0172B17511525E96E000E1621F7
:10032C00EA6EEFCF13F01FD8010E026E036A4FDF97
:10033C001251175DD8A0EED7120010C018F0185348
:10034C00D8B410D00D0E136F0ED8010E026E036AC6
:10035C003EDF0A0E136F07D8010E026E036A37DFF9
:10036C00182FF0D712000A05D8A404D09EA8FED7E7
:10037C0013C0ADFF12000000700ED312E06AF86AD1
:10038C00C09EC2900F01386B396B3A6B789E799E88
:10039C00806A816A826A846A00011200010E0A6F07
:1003AC00CF0EAF6EB06AB886AC84AC84AC98AB8E12
:1003BC00AB88AC8A12000952D8B41200006A080E3D
:1003CC00046ED890053600360950005E0580D8B012
:1003DC0003D0059009500026042EF3D71200090013
:1003EC00F5CF05F0F5CFE7FF04D00900F550056E09
:1003FC0006260552D8B412000900F5CFE4FF052EED
:10040C00FBD712000D486172647761726520493226
:10041C004320032020200120022D2D00022120004A
:0E042C000D456E64206F662053656172636833
:020000040030CA
:0E000000FF281F3CFF3F81FF0FC00FE00F40A5
:00000001FF
