:020000040000FA
:0400000080316228C1
:10000800FE00030EFF0008084001D2000408BA00F1
:100018006C08C3000508B9007508C4007608C50057
:100028007908C6007A08C7007008C8007708BD00BC
:100038007808BE007B08BF007C08C0007208C100B9
:100048007308C2007408BC007108C9000A08BB0024
:100058008A014E01991E37288F1E37284001D52363
:100068004E018F12372840013A0884004308EC00FB
:10007800390885004408F5004508F6004608F900E7
:100088004708FA004808F0003D08F7003E08F80065
:100098003F08FB004008FC004108F2004208F3005A
:1000A8003C08F4004908F1003B088A00520888001F
:0A00B8007F0E8300FE0E7E0E09008D
:1000C400AB23A323C62382238B170B174E01991648
:1000D4004001B001B1019410C7308600263087007A
:1000E400DA30F7000530F800BA2520304101A200CB
:1000F400A30140010E24C730860026308700F60194
:10010400C7308400263085000B250930F7000630FF
:10011400F800BE25DE30F7000530F800BE25B63005
:100124008400263085000B25E130F7000530F80007
:10013400BE25C730840026308500760880007C21E7
:10014400210AEC00F5006530F90018257008A100BB
:10015400B130860026308700F601D430F700053030
:10016400F800BE25E530F7000530F800BE25B130B3
:1001740084002630850076088000B130E000263007
:10018400E1002108AC00AD013C223230F200F30161
:10019400C221310830020319562959216530200241
:1001A400031D55295921A008031D51295921200354
:1001B400031D0129EA30E0008530E10001304101EE
:1001C400A200A30140010E24B1308600263087002E
:1001D400F601EA30F7000530F800BE25B630840099
:1001E400263085000B25B130840026308500760842
:1001F4008000B130E2002630E300D82150290630D7
:100204002002031D502959212008AB009A102B18F5
:100214009A142B03031D50290530EA00B1308600DF
:1002240026308700F601D130F7000530F800BE25EE
:10023400EF30F7000530F800BE25B13084002630D9
:10024400850076088000B130E0002630E100AC0182
:10025400F830AD00AE01AF011A22B130860026306D
:100264008700F601D130F7000530F800BE25F430E0
:10027400F7000530F800BE25B13084002630850033
:1002840076088000B130E0002630E100AC01F8309F
:10029400AD00AE01AF011A22EA0B10295529200343
:1002A400031D55297C21CB28A2286300572940012E
:1002B4003008F5003108F900D424F0097008EC0086
:1002C4006C094101A00020185929F0304001310780
:1002D4008400EC0126306C3D85000008A000310A42
:1002E400EC00F500F601F9010130FA002C25700844
:1002F400B1000800EA30E0008530E1004101A201CC
:10030400A30140010E24AC30860026308700F6019C
:10031400EA30F7000530F800BE25B63084002630F8
:1003240085000B25AC3084002630850076088000DB
:10033400AC30E2002630E300D821EE30F200023087
:10034400F300C221AC30860026308700F601D73096
:10035400F7000530F800BE25F930F7000530F80045
:10036400BE25AC3084002630850076088000AC3091
:10037400E0002630E100C730E2002630E300F62931
:10038400F30A0E30F100BD30F000F00BC729F10B79
:10039400C529F20BC329F30BC3290800E830F20086
:1003A4000330F300C221F40BD02908006008E700F1
:1003B4006108E8000130A2005A220730E7008630C5
:1003C400E8000130A2005A226208E7006308E8004E
:1003D4000130A2005A22FF30CA006D23FF30CA0048
:1003E4006D23FF30CA006D2B6008E7006108E80048
:1003F4000130A2005A220530E7008630E8000130BF
:10040400A2005A222230CA006D236208E700630862
:10041400E8000130A2005A222230CA006D23FF30C6
:10042400CA006D23FF30CA006D23FF30CA006D2B54
:100434006008E7006108E8000130A2005A22053094
:10044400E7008630E8000130A2005A222C08CB00D5
:100454002D08CC002E08CD002F08CE000130A200BC
:100464000A23FF30CA006D23FF30CA006D23FF301A
:10047400CA006D2B6008E7006108E8000130A200A3
:100484005A220530E7008630E8000130A2005A22E3
:100494002C08CF002D08D0000130A200F822FF3034
:1004A400CA006D23FF30CA006D23FF30CA006D2BD4
:1004B40067088400680885000008B400B4080319BC
:1004C400762AE90101303402031C762AE90A690814
:1004D400670784000030683D85000008CA00762361
:1004E40034086902031C682A0800B3014B08F500AC
:1004F4004C08F6001030F9002730FA00F824F0090F
:10050400701C982A4B08F5004C08F6001030F900CE
:100514002730FA002C257508B3007008CB00710849
:10052400CC0030303307CA007623A42A4B08F500E8
:100534004C08F600E830F9000330FA00F824F0091A
:10054400701CB82A4B08F5004C08F600E830F90096
:100554000330FA002C257508B3007008CB0071082D
:10056400CC0030303307CA007623C32A4B08F50089
:100574004C08F6006430F900FA01F824F009701C04
:10058400D62A4B08F5004C08F6006430F900FA014D
:100594002C257508B3007008CB007108CC003030EE
:1005A4003307CA007623E12A4B08F5004C08F6000D
:1005B4000A30F900FA01F824F009701CF32A4B08F8
:1005C400F5004C08F6000A30F900FA012C257508EC
:1005D400B3007008CB007108CC0030303307CA0078
:1005E400762330304B07CA006D230800D01F052B3B
:1005F4002D30CA006D234F09CB005009CC00CB0A23
:100604000319CC0A092B4F08CB005008CC00772AD9
:10061400E601E60ABC3066078400EC0126306C3D36
:1006240085004B08F5004C08F6004D08F7004E080D
:10063400F8000A30F900FA01FB01FC01602570089A
:1006440080007508CB007608CC007708CD007808C8
:10065400CE004B08F5004C08F6004D08F7004E0894
:10066400F800F901FA01FB01FC01E524F009701816
:100674000B2B660AE90001306602031C512BE903C7
:10068400BC3069078400EC0126306C3D85003030B5
:100694000007CA0076236908013C031C412B0800AB
:1006A4000130A20058234A08AA0008002203031DAF
:1006B4006B2BFF30CA004E018F1E5D2B8F1E662BE5
:1006C400420119084001CA0042019D1C6B2B1D12F6
:1006D4001D16400108004E010F1E6D2B40014A08F3
:1006E40042019A00400108002203031D802B4E01A1
:1006F4000F1E792B40014A0842019A00400108006C
:10070400A801A901B501B601B701B8010130F4008F
:10071400D021FF30CA006D23FF30CA006D23FF30A3
:10072400CA006D230030E4008630E500FF30B200DB
:10073400F623A301A4010630A700A5010130A600F9
:1007440008000F307E01A60017307D01CB00400168
:100754000800603051018D008F0191019201063033
:10076400930041019E131D107E01B801C301CE0107
:10077400D901E40153019413901340018C018D01BC
:100784008E018F01900108000130A2004030420127
:100794009B0003309C009F151E151E129E169D176C
:1007A4001D16400108005223F03030078400EC018C
:1007B40026306C3D85002A08800030084101A400E1
:1007C4004001300AEC00F500F601F9010130FA00AD
:1007D4002C257008B00031083002031DF52B4101AF
:1007E40024084001B00008006408E7006508E80038
:1007F4000130A2005A22B208031D042C2C30CA0076
:100804006D230D2CFF30CA006D23FF30CA006D2309
:10081400FF30CA006D230800D30141012208F5000E
:100824002308F6001030F9002730FA004001F824BC
:10083400F009701C3C2C41012208F5002308F60045
:100844001030F9002730FA0040012C257508EB0020
:1008540070084101A2007108A3004001D30AB63018
:1008640053078400EC0126306C3D850030306B0763
:1008740080004A2C41012208F5002308F600E830E4
:10088400F9000330FA004001F824F009701C692CC7
:1008940041012208F5002308F600E830F90003308E
:1008A400FA0040012C257508EB0070084101A200F4
:1008B4007108A3004001D30AB63053078400EC0149
:1008C40026306C3D850030306B078000762C41016A
:1008D4002208F5002308F6006430F900FA0140010B
:1008E400F824F009701C942C41012208F500230817
:1008F400F6006430F900FA0140012C257508EB007C
:1009040070084101A2007108A3004001D30AB63067
:1009140053078400EC0126306C3D850030306B07B2
:100924008000A12C41012208F5002308F6000A30BA
:10093400F900FA014001F824F009701CBE2C4101B1
:100944002208F5002308F6000A30F900FA014001F4
:100954002C257508EB0070084101A2007108A30062
:100964004001D30AB63053078400EC0126306C3DB5
:10097400850030306B078000D30AB63053078400FB
:10098400EC0126306C3D85003030410122078000A7
:100994007008A2007108A300400153085501C60065
:1009A40040010800F001750879020319F0090800F4
:1009B400F00175087902031D080076087A02031D08
:1009C4000800F0090800F00175087902031D080009
:1009D40076087A02031D080077087B02031D0800CD
:1009E40078087C02031D0800F0090800F00176086D
:1009F4007A02031C08007A087602031C052D790884
:100A0400750203180800F00908000008F5008100C9
:100A14000E2D0008F500F607F5080319080001314A
:100A2400413100088100F50B112D0800F908031964
:100A34000800F0010830F4000310F50DF00D7908FA
:100A4400F00275140318292D75107908F007F40BBA
:100A54001E2D08007508F7007608F8007908FB00D9
:100A64007A08FC00F201F3017B08F5007C08F6002B
:100A7400F901FA01DA24701C422DF501F60108008F
:100A84001030F4000310F70DF80DF20DF30D7B0890
:100A9400F2027C08F33B77140318552D77107B087A
:100AA400F2077C08F33DF40B442D7708F500780831
:100AB400F6007208F0007308F10008007508D4000D
:100AC4007608D5007708D6007808D7007908D800CA
:100AD4007A08D9007B08DA007C08DB00DC01DD0140
:100AE400DE01DF015808F5005908F6005A08F7003E
:100AF4005B08F800F901FA01FB01FC01E524701C14
:100B0400882DF501F601F701F80108002030F40002
:100B14000310D40DD50DD60DD70DDC0DDD0DDE0D76
:100B2400DF0D5808DC025908DD3B5A08DE3B5B0840
:100B3400DF3B54140318A72D54105808DC07590838
:100B4400DD3D5A08DE3D5B08DF3DF40B8A2D540879
:100B5400F5005508F6005608F7005708F8005C0839
:100B6400F0005D08F1005E08F2005F08F300080081
:100B7400CA25F5008100C12DCA25F500F607F50840
:100B840003190800CA2541318100F50BC42D080062
:100B940078088A007708F70A0319F80A82000234F1
:100BA4007234303402346E343034023474343334B6
:100BB400033450344934433402342034403403344D
:100BC4004D3468347A3404342E34763461346C34DD
:100BD4000434703461346734653404342E3462343C
:100BE40063346F3404342E34703463346F34043417
:100BF4002E3474347834743401342D34043472341F
:100C040065347334743401343D340134203408348D
:100C1400313436344634313435343334373436347D
:020000040001F9
:0A000E008C3FFE3F9F3FFF1FFF3FA6
:00000001FF
