:020000020000FC
:020000003BC003
:0200040018954D
:02000800189549
:02000C00189545
:02001000189541
:0200140018953D
:02001800189539
:02001C00189535
:02002000189531
:0200240018952D
:02002800189529
:02002C00189525
:02003000189521
:0200340018951D
:02003800189519
:02003C00189515
:02004000B0C04E
:0200440018950D
:02004800189509
:02004C00189505
:02005000189501
:020054001895FD
:020058001895F9
:02005C001895F5
:020060001895F1
:020064001895ED
:02006C001895E5
:020070001895E1
:020074001895DD
:1000780058E05EBF5FEF5DBF50E054BF50E850935B
:10008800F20053E15093F2003ED066D07894259A5E
:100098002D9850E0509302015093030150E0509383
:1000A8000001509301017DD050910401509300014B
:1000B80050910501509301013090000140900201D8
:1000C8003418132C30900101409003013408232C7C
:1000D800612D722DC8EED3E09BD0009400FE0FC0B6
:1000E80033241D99339430942D9830FC2D9A5091D7
:1000F8000001509302015091010150930301D3CFA5
:1001080000C08895FECF50E054BF50E85093F200ED
:1001180053E15093F2005091610050685093610090
:1001280050E05093610050E856BF5CE456BF50E081
:1001380055B950E058B950E05BB950E05EB9089540
:1001480060911201623019F457E0509311015091F7
:10015800110150931001089550916E005160509311
:100168006E0050E0509308015093090150930A0122
:1001780050930B0116D051E05093120154E0509364
:100188001101DEDF53E856BD08EF45B44022342C98
:1001980040901001432845BC08954CD01FD0A89822
:1001A80041C050910F015E7F0FF4516050930F01D1
:1001B800F89450910801509304015091090150930B
:1001C800050150910A015093060150910B0150937B
:1001D800070150900F0150FC7894089553E856BDDC
:1001E800309008013394309208013090090109F4E5
:1001F80033943092090130900A0109F43394309213
:100208000A0130900B0109F4339430920B010895E0
:100218000024D71730F07D1718F06C1708F00895F0
:100228000094089530900D0150910C015FBF5091DA
:100238000E01189550930E015FB750930C01309240
:040248000D01089507
:00000001FF
