:020000020000FC
:100000000BC018951895189518951895189518956A
:06001000189518951895E3
:1000180050E05EBF5FE55DBF47D070D0089A5EB51F
:1000280050685EBD5EB55F7B5EBD5EB551605EBD0E
:100038005EB552605EBD5DB558605DBD22E01DB520
:10004800122B1DBD51E052A93AD053A150A950E03E
:1000580051A950A155A941D0C0A1D1A16FEF73E01A
:100068005AD000FF04C05FEF50A953E051A950A136
:1000780056BD51A157BDD4EFE1E00AD0E3CF889532
:10008800FECF99E19A95F1F700C0BA95D1F7089596
:10009800E395AFE794E19A95F1F7AA95D9F7DA9540
:1000A800C1F7EA95B1F7089558ED5CBF50E057BF26
:1000B80058ED5CBF50E056BF50E052B9089552A1C8
:1000C8005BBBEA9AE998B2E0DCDFEF9AEE9AEE9928
:1000D800FECFEF9859B353A9089575A1AAE070957A
:1000E80008F4129808F0129A82E18A95F1F751E023
:1000F80054A907D07695AA9599F708950A9A129A5D
:10010800089594A18DEF8A95F1F700009A95000063
:100118000000C1F708950027D71730F07D1718F0B1
:0A0128006C1708F008950095089583
:00000001FF
