:020000020000FC
:0200000033C00B
:0200040018954D
:02000800189549
:02000C00189545
:02001000189541
:0200140018953D
:02001800189539
:02001C00189535
:02002000189531
:0200240018952D
:02002800189529
:02002C00189525
:02003000189521
:0200340018951D
:02003800189519
:02003C00189515
:02004000189511
:0200440018950D
:02004800189509
:02004C00189505
:02005000189501
:020054001895FD
:020058001895F9
:02005C001895F5
:020060001895F1
:020064001895ED
:1000680058E05EBF5FEF5DBFC5D2CBD25FD23C9890
:100078003D985CE05093440174D152E0509347019D
:1000880051E05093400191D2C0E0D1E0E2E8F6E0BF
:10009800DCD250E050934D0151E050934E0151E0B5
:1000A8005093400155D252E05093470151E050938C
:1000B80040017BD2C0E0D1E0E8E9F6E0C6D250E0EA
:1000C80050934D0151E050934E0151E0509340013F
:1000D8003FD25FEF50934101109041011394109269
:1000E80041015091410150935201DDD15CE350939D
:1000F8004D0151E050934E0151E05093400128D2F8
:10010800C0E0D1E0EEE9F6E0A0D250E050934D0116
:1001180051E050934E0151E05093400119D2609143
:1001280041016F30C8F25FEF5093410110904101D7
:1001380013941092410160914101C0E176D200927E
:10014800420160914201662329F551E0509347012D
:1001580051E05093400129D25091410150935201EE
:10016800A2D15CE350934D0151E050934E0151E010
:1001780050934001EDD1C0E0D1E0E0EAF6E065D26D
:1001880050E050934D0151E050934E0151E050938F
:100198004001DED1C0E0D1E0EEE9F6E056D250E011
:1001A80050934D0151E050934E0151E0509340015E
:1001B800CFD141D1609146016F3F81F1509141010A
:1001C80050934801E3D0609143016623B9F451E0AC
:1001D80050934901509141015093520164D15CE31D
:1001E80050934D0151E050934E0151E0509340011E
:1001F800AFD150E050934801C9D00FC0C0E0D1E062
:10020800E4EAF6E022D250E050934D0151E05093D9
:100218004E0151E0509340019BD120C052E05093D1
:10022800490151E05093470151E050934001BDD13D
:10023800C0E0D1E0E8EAF6E008D250E050934D0182
:1002480051E050934E0151E05093400181D151E06B
:100258005093470151E050934001A7D10CD16091D0
:1002680041016F3F08F462CF52E05093470151E0DB
:10027800509340019AD1C0E0D1E0E4EEF6E0E5D138
:1002880050E050934D0151E050934E0151E050938E
:1002980040015ED152E05093470151E05093400134
:1002A80084D1609149016623B9F4C0E0D1E0E2EF5E
:1002B800F6E0CBD150E050934D0151E050934E0100
:1002C80051E05093400144D151E05093470151E02F
:1002D800509340016AD135C0609149016130B9F449
:1002E800C0E0D1E0ECE1F7E0B0D150E050934D012F
:1002F80051E050934E0151E05093400129D151E013
:100308005093470151E0509340014FD11AC060917A
:1003180049016230B1F4C0E0D1E0E8EAF6E095D1F5
:1003280050E050934D0151E050934E0151E05093ED
:1003380040010ED151E05093470151E050934001E4
:1003480034D152E05093470151E0509340012DD1F0
:1003580050E050934901F3E0A0D08FCE00C08895BB
:10036800FECF609144016C3031F450E05093B900F5
:1003780058E45093B80060914401662301F454E0B6
:100388005093BC0050E050934601089550914801A5
:100398005093BB0054E85093BC00000000005090FC
:1003A800BC0057FC01C0FBCF08EF1090B900102229
:1003B800109248015FEF5093430160914801683003
:1003C80009F438C060914801683121F450E0509335
:1003D800430130C060914801683221F450E05093E5
:1003E800430128C060914801603221F45FEF5093C7
:1003F800430120C060914801603321F45FEF5093BE
:10040800430118C060914801683421F45FEF5093AC
:10041800430110C060914801603421F450E05093CA
:10042800430108C060914801683521F45FEF50939B
:10043800430100C07FC060914401662321F45CE061
:10044800509344018EDF5091BC00546A5093BC0015
:100458005090BC0057FC01C0FBCF08EF1090B900CA
:1004680010221092480160914801683011F462D05E
:1004780001C060D008955091BC0054695093BC00ED
:100488000895E395AEEF94E19A95F1F7AA95D9F717
:10049800DA95C1F7EA95B1F70895D8EEE3E0F1DF10
:1004A800FA95D9F7089552E050933C010FE0109067
:1004B800520110221092510169E0C09151016C174C
:1004C80030F41090510107E0100E10925101109075
:1004D800510100E3100E10923E0150E0509351017B
:1004E8001090510113941092510150915201579557
:1004F8005093520160915101643090F30FE01090D5
:10050800520110221092510169E0C09151016C17FB
:1005180030F41090510107E0100E10925101109024
:10052800510100E3100E10923D01089550E05093E0
:10053800440108956AE0C09144016C1728F45FEF04
:1005480050934501089503C050E050934501089524
:10055800A0914D01B0914E015C9150934A01609178
:100568004A01662309F150E050934F0160914A0116
:100578006130D0F010904F01139410924F011090F9
:100588004D0100914F01100EA12D10904E0100E079
:10059800101EB12D5C9150934B011FD060914F01FB
:1005A800C0914A016C1730F3089550914701509358
:1005B800500160915001662309F40EC05DE050932C
:1005C8004B010BD05AE050934B0107D010905001CB
:1005D8001A941092500191F708956091400161308A
:1005E80041F45090C00055FEFCCF50914B01509300
:1005F800C600089550E055B950E058B950E05BB9CD
:1006080008955091C00052605093C0005FEC509321
:10061800C40050E05093C5005091C1005061509300
:10062800C10058605093C1000895CC2309F408957F
:10063800002458E0552E660F001C0C1A616010F457
:100648006E7F0C0E5A94B9F70895C895602DE395FE
:1006580009F4F395699306C0C895602DE39509F4EC
:10066800F395960F603009F40895C895E39509F459
:10067800F39509926A95C9F708951553686F77201D
:10068800486172647761726520493243204275730C
:100698000520202020200120023A2000022D2D00D4
:1006A8003B4552524F523A204D697373696E672029
:1006B80050756C6C5570207265736973746F7273C2
:1006C800206F7220436865636B20796F75722063B1
:1006D8006F6E6E6E656374696F6E73210D456E641F
:1006E800206F6620536561726368284E4F4E5F46DF
:1006F8004F554E443A20496E636F72726563742099
:1007080049324320706F7274732073656C6563742B
:0E071800656421000953554343455346554C33
:00000001FF
;HEX file generated by Great Cow BASIC
