:10000000150A020A14024306120A060C2B006A00A3
:10001000EA02080AEB02070A7B0C2A00EA020E0A2F
:10002000F402050AA304C304340A6400FF0C2E0082
:10003000FF0C2F00FF0C3000FF0C3100FF0C3200D2
:10004000070C0200FF0C05002E00FF0C06002F001D
:10005000FF0C07003000FF0C08003100FF0C090006
:100060003200640C3400010A000C2E00050013025B
:100070002500000C2F00060013022600000C3000A3
:10008000070013022700000C3100080013022800AB
:10009000000C3200090013022900B302310A0300E8
:020FFE00000AE7
:021FFE00FA0FD8
:00000001FF
;PIC16F59
