:020000040000FA
:060000008A110A12052816
:1000080009002921C420B530F2000130F300B630D0
:10001800F7000330F8009323B530AD000130AE008F
:1000280019220130A300A2010122B530F2000130EB
:10003800F300C630F7000330F8009323B530AD0065
:100048000130AE0019220430F400BC209820B530ED
:10005800F2000130F300D130F7000330F8009323A9
:10006800B530AD000130AE0019220130A300A20165
:100078000122B530F2000130F300DC30F700033024
:10008800F8009323B530AD000130AE001922A3016A
:100098000C30A2000122A00138222708BB00280842
:1000A800BC006922AF30B6000130B7000430B3009D
:1000B800B530F2000130F300E730F7000330F80004
:1000C8009323B530B4000130B5009821C530AD0098
:1000D8000130AE0019220130A3000C30A200012229
:1000E8000130A00038222708BB002808BC0069227C
:1000F800AF30B6000130B7000430B300B530F200BD
:100108000130F300E730F7000330F8009323B530EF
:10011800B4000130B5009821C530AD000130AE0003
:1001280019224B286300962806120130A1003F21AE
:100138000430F200F301AE208030A1003F210C30E2
:10014800F500A6280F30F000F00BA8280000F50BEA
:10015800A6280800F30AE330F1000630F000F00B9F
:10016800B328F10BB128F20BAF28F30BAF28080026
:10017800E830F2000330F300AE20F40BBC2808008E
:1001880083160313061286120A30F200F301831253
:100198000313AE209021A4080319CE280612831653
:1001A800031306108610061186110F30F200F301B2
:1001B80083120313AE200614861406118611033029
:1001C800F000F00BE52886160330F000F00BEA2863
:1001D80086120530F200F301AE200330B000861617
:1001E8000330F000F00BF62886120130F100F00120
:1001F800F00BFC28F10BFB284C30F000F00B022927
:10020800B00BF3280530F200F301AE200610861477
:10021800061186110330F000F00B10298616033002
:10022800F000F00B152986125330F000F00B1A2954
:100238002830A1003F210630A1003F210C30A10049
:100248003F2198200C30A5000800831603139F1344
:10025800831203131F10831603139F111F159F1476
:100268001F1007309C008312031385018601870144
:1002780088018901080083160313061086100611E9
:100288008611831203130610861006118611A11B0E
:100298008615211B0615A11A8614211A0614013089
:1002A800F000F00B5529000086160330F000F00B23
:1002B8005B2986120330F000F00B602906108610C7
:1002C80006118611A119861521190615A11886147B
:1002D800211806140130F000F00B70290000861672
:1002E8000330F000F00B762986120330F000F00B93
:1002F8007B2986110611861006103530F000F00BA8
:1003080083291030210203188F292108073C03187C
:100318008F292108A50008000A30F200F301AE2059
:10032800FF30A4000800080036088400831337183B
:100338008317330800020318F729C530F20001308B
:10034800F300E930F7000330F800932333088316ED
:100358000317C50083120313360884008313371864
:10036800831700083302AC00B20101302C02031CD1
:10037800D029B20A340A8400831335188317000879
:10038800AA00AB00C5303207840083172B08800011
:100398002C083202031CBD29B201360884008313DD
:1003A8003718831701300002031CF629B20A3208F5
:1003B800360784008313371883170008AA00AB0098
:1003C80032082C07B800C5303807840083172B087B
:1003D8008000360884008313371883170008320218
:1003E800031CDA29002AC530F2000130F300360870
:1003F800F7003708F8002223080006122308013CFA
:1004080003180A2A0230A3021430A2072308F500B1
:100418004030F900872322087007B800803038047C
:10042800A1003F210530F500A6282D08840083137C
:100438002E1883170008A600A60803190800061638
:10044800AF0101302602031C372AAF0A2F082D07F7
:10045800840083132E1883170008A1003F21260863
:100468002F02031C292A0800831603139F179F11C4
:100478001F119F101F101F13831203139F131F17A1
:100488009F111F129F1220189F15A0181F162019C0
:100498009F161F140230F500A6201F1500001F1913
:1004A800532A1F10831603139F111F159F141F1023
:1004B8001E0883120313A700A8011E08A8008316AC
:1004C80003139F13831203130800AC013B08F500C4
:1004D8003C08F6001030F9002730FA001323F00921
:1004E800701C8E2A3B08F5003C08F6001030F90015
:1004F8002730FA004F237508B1007008BB00710857
:10050800BC00AC0AAF302C078400831730303107A9
:1005180080009A2A3B08F5003C08F600E830F9000C
:100528000330FA001323F009701CB22A3B08F500C7
:100538003C08F600E830F9000330FA004F2375084C
:10054800B1007008BB007108BC00AC0AAF302C07C2
:1005580084008317303031078000BD2A3B08F5003E
:100568003C08F6006430F900FA011323F009701C06
:10057800D42A3B08F5003C08F6006430F900FA017B
:100588004F237508B1007008BB007108BC00AC0AA5
:10059800AF302C0784008317303031078000DF2A02
:1005A8003B08F5003C08F6000A30F900FA0113236D
:1005B800F009701CF52A3B08F5003C08F6000A30E3
:1005C800F900FA014F237508B1007008BB007108E3
:1005D800BC00AC0AAF302C078400831730303107D9
:1005E8008000AC0AAF302C078400831730303B07FB
:1005F80080007008BB007108BC002C088316031724
:10060800AF00831203130800F00175087902031D77
:10061800080076087A02031D0800F0090800F001B6
:1006280076087A02031C08007A087602031C202B3D
:100638007908750203180800F00908007708840093
:100648008313781883170008F50072088400831351
:100658007318831775088000392B77088400831373
:10066800781883170008F607F500750803190800BD
:10067800F70AF20A770884008313781883170008AA
:10068800F9007208840083137318831779088000AF
:10069800F50B3C2B08007508F7007608F800790878
:1006A800FB007A08FC00F201F3017B08F5007C08E6
:1006B800F600F901FA010823701C652BF501F60113
:1006C80008001030F4000310F70DF80DF20DF30DCB
:1006D8007B08F2027C08031C7C0FF30277140318D2
:1006E8007C2B77107B08F2077C0803187C0FF30734
:1006F800F40B672B7708F5007808F6007208F0000D
:100708007308F1000800F00175087918F007031064
:10071800F90C0310F50DF908031D882B0800720861
:100728008400831373188317AF23F5008000F20742
:10073800A62B72088400831373188317AF23F50060
:10074800F607F207F50803190800AF23840A8000AA
:10075800F50BA92B080078088A007708F70A03190F
:10076800F80A82000F3447347234653461347434C3
:10077800203443346F347734203442344134533492
:10078800493443340A344034323430343134383420
:100798002034763431342E3430340A3443346834D7
:1007A80061346E346E3465346C34203430343A3409
:1007B8000A344334683461346E346E3465343A3400
:0C07C800203431343A3401342034003441
:02400E007A3FF7
:00000001FF
