:020000040000FA
:040000008A11052834
:100008000900E320D6200130A000EF202508AA002F
:10001800AA206730F2000130F3006A30F70001309F
:10002800F8006E213230A6000230A30083120317B5
:10003800680883120313A200AB013D200330F200CD
:10004800F3019C200130A30083120317690883126F
:100058000313A200AB013D200330F200F3019C2002
:10006800A60B18286430F200F3019C2007286300CF
:100078003B2820302202031D4328A40176282D3076
:100088002202031D4A284030A40076282208F500E1
:100098003030F9006721F0097008A8002208F9003B
:1000A8003930F5006721F00928087005A900291CD6
:1000B80063282F302202F7002121A400762841303E
:1000C8002202031C08002208603C03186D28203017
:1000D800A20222085A3C031C080040302202F70002
:1000E8003F21A4002B1C7A288030A404071487140D
:1000F800071587150716871685160516230303198E
:10010800051224180710A418871024190711A41918
:100118008711241A0712A41A8712241B85120800B3
:100128000F30F000F00B96280000F50B942808001B
:10013800F30AE330F1000630F000F00BA128F10BD0
:100148009F28F20B9D28F30B9D280800023083128C
:100158000317EA000F30831203132A05A700093C8E
:100168000318B8280730A70730302707831203176A
:10017800EC0083120313A701A70AAA0C0430270274
:10018800031CC0280F302A05A700093C0318CE28F5
:100198000730A7073030270783120317EB008312B5
:1001A800031308008316031307108710071187111C
:1001B80007128712851205128312031308009F1372
:1001C8001F1083160313910107308312031399003C
:1001D8008501870108009F13831603139101831279
:1001E8000313200AA100031483160313910D83122D
:1001F8000313A10BF828831603131F139F121F164E
:10020800831203131F119F111F1220181F15A01806
:100218009F1520191F161F140230F50094209F14F3
:1002280000009F1815291F108316031391018312CC
:1002380003131E08A5009F13080011307702031846
:10024800003477082E3EF70001300318013E8A007B
:100258007708820010343F3406345B344F346634F8
:100268006D347D3407347F346F3477347C343934DB
:100278005E34793471341B30770203180034770800
:100288004C3EF70001300318013E8A0077088200CF
:100298001A3477347C3439345E34793471343D34EB
:1002A800763406340E3476343834373437343F34C1
:1002B8007334673450346D3407343E343E343E343E
:1002C80076346E341B34F001031479087502031C6C
:1002D800F00908007708840083137818831700084A
:1002E800F50072088400831373188317750880005B
:1002F8008529770884008313781883170008F60780
:10030800F500750803190800F70AF20A770884004F
:100318008313781883170008F90072088400831380
:0E0328007318831779088000F50B88290800E8
:02400E00D23F9F
:00000001FF
