:020000040000FA
:1000000000008A1102290034F200030E8301F1007E
:100010000A088A01F000040883120313B80083124F
:1000200003130B1D4D280B110030831203133504ED
:10003000031925288030831203133004831203131D
:10004000AE008A11CA208A112B28831203133108AB
:100050008A11CA208A11831203133508013CB500A6
:100060008A117E208A1183120313B20A00303204EF
:10007000031D4D280F30831203133405831203131D
:10008000B10083120313340E0F3983120313AE0031
:100090000F302E0583120313B000831203133808A8
:1000A000840070088A008301710E8300F20E720EC4
:1000B00009000730831203139900033083160313DA
:1000C00091000530831203139F00FF308316031342
:1000D0009F00CB308500C0308700823081008312C2
:1000E0000313B50183120313B10183120313B0018B
:1000F000831203138B168B177C28080083120313BB
:10010000330883120313B400831203131E088312EF
:100110000313B300831203139F14831203133308D2
:100120008312031334020318A7283408831203131D
:10013000B30083120313B60A06303602031CAA2842
:1001400083120313B30A83120313B601AA2883127E
:100150000313B6018312031334088312031333020B
:100160000318C62883120313340883120313B30041
:1001700083120313B70A06303702031CC9288312FF
:100180000313B30383120313B701C92883120313A4
:10019000B701080083120313AC00FF30831203136E
:1001A0008700851683120313AC1FDA28831203130A
:1001B0000516DD2883120313051283120313AC13F3
:1001C0002C08CA3EAC0001300318013EAD002C08DB
:1001D000FE002D08FF0080308A1196218A118312BB
:1001E0000313AF002F088312031387008312031336
:1001F0002F1FFE2883120313851601298312031370
:1002000085120800E030FE000130FF0080308A11C6
:100210000000A9218A11000083120313A1007F08A6
:10022000A000E230A2000130A300831203132008D3
:10023000A4002108A500FF30A007031CA103240887
:1002400025040319922904302207A400A501A50D55
:100250002308A5072408FE002508FF0080308A1126
:100260000000A9218A11000083120313A7007F0850
:10027000A6002208FE002308FF0080308A1100003B
:10028000A9218A11000083120313A900A5007F0889
:10029000A800A40002302207A400A501A50D230890
:1002A000A5072408FE002508FF0080308A11000001
:1002B000A9218A11000083120313A500AB007F0857
:1002C000A400AA00831203132608AA002708AB0083
:1002D000FF30A607031CA7032A082B0403198B2948
:1002E0002808FE002908FF0080308A1100009621AE
:1002F0008A11000083120313AA00240884008313C8
:10030000251883172A088000A80A0319A90AA40A35
:100310000319A50A6229063083120313A2070318E2
:10032000A30A15298A11000059280800003A031968
:100330009D29803A0319A42900347E088400831380
:100340007F188317000808007F088A007E08820053
:100350000800003A0319B129803A0319BB29FF01AB
:1003600000347E08840083137F1883170008FF0081
:10037000840A000808008A110000A421FD00FE0F75
:10038000FF03FF0A8A110000A421FC007D08FF0082
:100390007C08080040347934243430341934123461
:1003A00002347834003410340834033446342134B1
:1003B00006340E347F34093407340C344F342F3470
:1003C0000334003403340034363400340134003450
:1003D000F43401343734003401340034F53401345A
:0C03E0003934003401340034003400349F
:00000001FF
