:020000040000FA
:060000008A110A12052816
:1000080009002226E6258A110A1283160313A40181
:10001800A501103083160313A4070030031801301C
:10002800A507240883120313DC008316031325088D
:1000380083120313DD00E001E10183160313240892
:1000480083120313DE008316031325088312031398
:10005800DF003F30E200E3013C08CC003D08CD0062
:100068003626831603132408F5002508F600703099
:10007800F900FA01831203138A150A12FB208A1168
:100088000A1270180D28F83083160313AB00FF30DE
:10009800AC00083083160313AB0700300318013097
:1000A800AC0783120313DC01DD01831603132B084D
:1000B80083120313E000831603132C08831203131F
:1000C800E1007F30DE00DF01831603132B08831263
:1000D8000313E200831603132C0883120313E300AF
:1000E8003C08CC003D08CD003626831603132B08A8
:1000F800F5002C08F6003A30F900FA0183120313D0
:100108008A150A12FB208A110A1270184D284030ED
:1001180083160313A200A3012030A800A9011E30F2
:1001280083120313C900CA013C08CC003D08CD0066
:10013800470883160313AA0083120313FE200A300C
:10014800DC001430E0007530DE002B30E2003C08A3
:10015800CC003D08CD008A150A120E208A110A1219
:100168000A30E400E5011830E600E701DB30F20070
:100178000130F300FA30F7000930F8008A150A1246
:10018800D7218A110A12DB30ED000130EE009225EA
:100198001430E400E5012030E600E701DB30F2002E
:1001A8000130F3000D30F7000A30F8008A150A1202
:1001B800D7218A110A12DB30ED000130EE009225BA
:1001C8006430E400E5013830E600E701DB30F20096
:1001D8000130F3001C30F7000A30F8008A150A12C3
:1001E800D7218A110A12DB30ED000130EE0092258A
:1001F8006300FC28490883160313A600831203131F
:100208004A0883160313A7002608F5002708F600F6
:100218000230F900FA01831203138A150A126C21BD
:100228008A110A127508FE007608FF007E09E800A8
:100238007F09E900E80A0319E90A83160313260867
:10024800F5002708F6002A08F900FA0183120313BB
:100258008A150A120A218A110A12F009701C3A2A10
:10026800831603132608220783120313C400831678
:1002780003132A08280783120313C5004C08B60085
:100288004D08B7008227831603132A082207831212
:100298000313C400831603132608280783120313C5
:1002A800C5004C08B6004D08B70082278316031313
:1002B8002608220283120313C400831603132A0894
:1002C800280783120313C5004C08B6004D08B70071
:1002D8008227831603132A08220283120313C400F9
:1002E800831603132608280783120313C5004C0836
:1002F800B6004D08B700822783160313260822028A
:1003080083120313C400831603132A0828028312D6
:100318000313C5004C08B6004D08B70082278316A2
:1003280003132A08220283120313C400831603133B
:100338002608280283120313C5004C08B6004D088E
:10034800B700822783160313260822078312031394
:10035800C400831603132A08280283120313C50056
:100368004C08B6004D08B7008227831603132A08E5
:10037800220783120313C4008316031326082802D6
:1003880083120313C5004C08B6004D08B700822736
:1003980083160313AA0A831203136808F500690871
:1003A800F600F901FA018A150A120A218A110A12BD
:1003B800701C012A0310831603132A0D83120313DA
:1003C800FE00680783160313A000003003180130ED
:1003D80083120313690783160313A1000130200752
:1003E80083120313E8000030031801308316031347
:1003F800210783120313E900392A013083160313F6
:10040800A6020030031C0130A70226082A02831224
:100418000313FE00831603132708031C270F003C51
:1004280083120313FF0001307E0783160313A00015
:10043800003003180130831203137F078316031358
:10044800A1002008F5002108F6000230F900FA01A1
:10045800831203138A150A12BD218A110A12700821
:10046800E80771080318710FE9072129080071309E
:100478007702031800347708483EF7000230031863
:10048800013E8A00770882007034003410340C343E
:100498000A34883422343834203408342034103470
:1004A8001034803480344034043400340034003450
:1004B8002834483446346C3400340034003428344A
:1004C800103400341034003440347C340034843424
:1004D800823430344E34783406346C340C3400347E
:1004E800003410342834003404346434F834FE34CE
:1004F8007C34FE34FE34FE347C34FE340034403424
:10050800FE34FE34FE34FE347C34FE347C34FE3457
:100518004C3402347E343E347E34C6340E34C23415
:100528000034043400340834803400344034FE3459
:1005380070347034703410341034FE340034403465
:10054800FE340034F834F8347034F8341034F834A5
:100558009034103478343834783488341834883403
:1005680000340034003420347834713077020318B2
:1005780000347708C63EF70002300318013E8A00AF
:10058800770882007034FE3438340A340634CC34A8
:1005980066347C347034043440341034383488344D
:1005A800A23470341C34003400340E34FE34543415
:1005B800263492340A343834823410341034A03457
:1005C8001034C0342034A2348434C2348234283401
:1005D8008A3494340234923492346C34AC342834EF
:1005E800283482340234923424349234823482346B
:1005F800923412348234103482348034103480348B
:10060800043408348234123482341234923402347A
:1006180080344034803428341034A234FE34083412
:100628008234043480340234A834903488348834D2
:10063800A834FC34A8341034903480342034823404
:10064800083410348834283428341034A8347C34DE
:100658008034403480345034A034C83410340034EA
:100668008234103444347130770203180034770828
:10067800443EF70003300318013E8A0077088200E1
:1006880070347C347C3400340034EE34EE347C3402
:10069800A834FE34FE3454345434943494347C34C2
:1006A8007C3400349E3400342834FE341034AA34A8
:1006B8000634443444347C347C3460341034C034DC
:1006C80010349234FE34A2348A3424348A34923476
:1006D800E234923492346C346C34443428344434E4
:1006E800A234F23422349234823482349234123472
:1006F80092341034FE348234283480341834103460
:1007080082341234A23432349234FE348034803449
:1007180070341034E0349234823410348234023429
:1007280080340434A834883488348834A8341234A3
:10073800A8340834FA3488345034FE34F034083499
:100748008834283428340834A834903480348034E9
:1007580060342034A034A8346C34FE346C34103443
:10076800423471307702031800347708C23EF7002C
:1007780003300318013E8A00770882007034383449
:10078800FE340C340A34CC3466347C3420340434DB
:10079800403438341034A234883470341C34003473
:1007A80000340E34FE345434C834443400348234B3
:1007B80038341034103400341034003408348A3497
:1007C800803492349634FE348A349234123492341B
:1007D80052340034003482342834283412348234B9
:1007E800243492348234443492341234923410349F
:1007F80082347E34443480340434203482341234D5
:1008080042345234923402348034403480342834B0
:1008180010348A3482342034FE340434803408346A
:10082800A834883488349034A8340234A83408347E
:1008380080347A348834803408340834883428344E
:1008480030340834A8348034403440348034503450
:10085800A034983482340034103420344434713055
:100868007702031800347708403EF7000430031875
:10087800013E8A00770882007034103400340A344C
:1008880006348834223438343E3408342034103462
:10089800103480348034403404340034003400345C
:1008A80028342434C434A0340034003400342834C8
:1008B800103400341034003404347C3400348C3464
:1008C80062342034723460340E346C343C34003476
:1008D80000340034283410340C347C34F8346C344C
:1008E8004434383482340234F434FE34003402346C
:1008F80082348034FE34FE347C340C34BC348C3482
:10090800643402347E343E347E34C6340E34863445
:10091800003440340034083480340034F034703407
:100928004034FE34303404347834F0340034003445
:1009380000340034F034F03470341034F8341034A7
:1009480040344034F834383478348834783488344F
:10095800003400340034103478344C08F5004D0865
:10096800F6003C08F9003D08FA008A150A12E92049
:100978008A110A12F009701CC62C0130B200B301AA
:10098800BC01BD010F30A002A101A2012008F500A1
:10099800B230F9008A150A12F4208A110A12F009F5
:1009A8007008FE002008F900CA30F5008A150A12FE
:1009B800F4208A110A12F0097E08700583160313C1
:1009C800A000201CEF2C013083120313A602003074
:1009D800031C0130A70283120313AC01AC0A2C03D9
:1009E800031DFB2C2008F7003B22AE001E2D023011
:1009F8002C02031D042D2008F700B922AE001E2D7D
:100A080003302C02031D0D2D2008F7003723AE00FC
:100A18001E2D04302C02031D162D2008F700B523C7
:100A2800AE001E2D05302C02031D1E2D2008F700D8
:100A38003324AE00A801A901AD01AD0AA301AB01A1
:100A480001303A02031C772DAB0AAA01EA010130F2
:100A58003A02031C722DEA0A2E1C442D2108240791
:100A6800FE0023087E07C40028082607FE002A087F
:100A78007E07C5004C08B6004D08B7008227552DE3
:100A880021082407FE0023087E07C400280826073B
:100A9800FE002A087E07C5003208B6003308B700F2
:100AA80082273B08F5003A08F9008A150A128B21BB
:100AB8008A110A127008FE002407C40028082607B5
:100AC800FE002A087E07C5003208B6003308B700C2
:100AD8008227AA0A3A086A02031C2F2DA30A3A0899
:100AE8002B02031C282DAE0C3A08A8070030031867
:100AF8000130A90708302D02031C212D3A08A1074F
:100B0800003003180130A20705302C02031CF22C18
:100B1800B201B3010130BC00BD0108006D088400BA
:100B280083136E1883170008BE00BE080319080057
:100B38006408BF006508C000C10101303E02031C03
:100B4800E52DC10A3F08A4004008A5006608A600D4
:100B58006708A70041086D07840083136E18831780
:100B68000008A0003C08CC003D08CD00B1243B089B
:100B7800F5003A08F9008A150A128B218A110A121F
:100B88007008FE003F0783160313A0000030031807
:100B9800013083120313400783160313A1000130A9
:100BA800200783120313BF00003003180130831697
:100BB8000313210783120313C0003E084102031CDC
:100BC800A52D080083160313061106128612861037
:100BD800061007118312031307110130F200F30105
:100BE8008A150A1200208A110A1207150130F2002C
:100BF800F3018A150A1200208A110A1286140614B3
:100C080006113F30CB008A150A12A0208A110A1259
:100C1800C030CB008A150A12A0208A110A12861049
:100C28000610B201B3010130BC00BD010530BB00A4
:100C3800B9010130BA008A150A124628831603132F
:100C48009F13831203131F10831603139F111F157D
:100C58009F141F10831203138501860187018801E1
:100C680089010800CE01CF01D201D301D801D901F1
:100C7800DA01DB01D001D101D401D501D601D701B8
:100C88005C085E02CE005D08031C5D0F5F02CF00AA
:100C980060086202D2006108031C610F6302D3007E
:100CA8004E08F9004F08FA00F501F6018A150A12F4
:100CB8000A218A110A12701C652E0130D800D90148
:100CC800682EFF30D800D9005208F9005308FA00FE
:100CD800F501F6018A150A120A218A110A12701CF6
:100CE800792E0130DA00DB017C2EFF30DA00DB00E0
:100CF8005808F5005908F6004E08F9004F08FA00A0
:100D08008A150A12BD218A110A127008CE007108CC
:100D1800CF005A08F5005B08F6005208F90053089E
:100D2800FA008A150A12BD218A110A127008D20027
:100D38007108D3004E08F5004F08F6000230F9009C
:100D4800FA018A150A12BD218A110A127008D00008
:100D58007108D1005208F5005308F6000230F90076
:100D6800FA018A150A12BD218A110A127008D400E4
:100D78007108D5004E08F5004F08F6005208F90032
:100D88005308FA008A150A120A218A110A12F00970
:100D9800701C282F4E085402D6004F08031C4F0F12
:100DA8005502D7005C08F5005D08F6005E08F900FA
:100DB8005F08FA008A150A12E9208A110A12F00956
:100DC800701C1E2F5C08C4006008C5004C08B600E3
:100DD8004D08B70082275808DC0759080318590F2F
:100DE800DD075608F5005708F600F901FA018A15DB
:100DF8000A120A218A110A12701C092F5408D607F0
:100E080055080318550FD7071D2F50085402FE0028
:100E18005108031C510F5502FF007E08D6077F08B2
:100E280003187F0FD7075A08E0075B0803185B0F02
:100E3800E107D62E5C08C4006008C5004C08B6005F
:100E48004D08B7008227812F52085002D600530858
:100E5800031C530F5102D7006008F5006108F60023
:100E68006208F9006308FA008A150A12E9208A1153
:100E78000A12F009701C782F5C08C4006008C500CD
:100E88004C08B6004D08B70082275A08E0075B08EF
:100E980003185B0FE1075608F5005708F600F9013B
:100EA800FA018A150A120A218A110A12701C632F84
:100EB8005008D60751080318510FD707772F540841
:100EC8005002FE005508031C550F5102FF007E0812
:100ED800D6077F0803187F0FD7075808DC0759087B
:100EE8000318590FDD07302F5C08C4006008C500DF
:100EF8004C08B6004D08B70082270800441B862F0F
:100F080006148610441F8C2F86144030C402061025
:100F18004508F5000830F900E5277508B000061106
:100F2800B8303004CB008A150A12A0208A110A12A0
:100F3800061140304404CB008A150A12A0208A11F9
:100F48000A1206158A150A1270208A110A12420816
:100F5800B80006158A150A1270208A110A1242086A
:100F6800B80007304505B4003618BE2FFE30B5006E
:100F78000314C12F0130B50003103408EF00031922
:100F8800C82FB50DEF0BC52F3618CE2F38083505ED
:100F9800B800D12F38083504B80006114030440491
:100FA800CB008A150A12A0208A110A1206153808E1
:100FB800CB008A150A12A0208A110A128610061080
:100FC8000800F90803190800F0010830F4000310BC
:100FD800F50DF00D7908F00275140318F62F751049
:0A0FE8007908F007F40BEB2F080066
:10100000F30AE330F1000630F000F00B0528F10B95
:101010000328F20B0128F30B012808005C085E028C
:10102000031818285C08C3005E08DC004308DE00D3
:1010300060086202031822286008C3006208E0000A
:101040004308E2005C03B1005C085E02031C452813
:10105000B10A6003C30060086202031C4128C30A8E
:101060003108C4004308C5004C08B6004D08B7005D
:101070008A110A1282278A150A1262084302031C87
:101080002F285E083102031C28280800C701C80168
:1010900086140610C601C60AFF30B000B00A061159
:1010A000B8303004CB00A020FF30AF00AF0A0611EB
:1010B00040302F04CB00A0200615CB01A0203F30EC
:1010C0002F02031C562807303002031C4E288610BE
:1010D000061402304602031C4B2886100610080036
:1010E000831603138817081788160816881508151D
:1010F0008814081483120313061686160F30F000A6
:10110000F00B8028C213881BC2174213081B42171A
:10111000C212881AC2164212081A4216C21188193F
:10112000C215421108194215C2108818C214421083
:101130000818421486120F30F000F00B9D280800AA
:101140006C1006196C14EC100618EC1486180610B6
:1011500006117020C21BA92806116C18061506106E
:10116000EC180614061283160313081088100811D1
:101170008811081288120813881383120313881326
:10118000CB1B881708134B1B08178812CB1A88161D
:1011900008124B1A08168811CB19881508114B191B
:1011A00008158810CB18881408104B180814013043
:1011B000F000F00BD928000086160130F000F00B8B
:1011C000DF28000086120130F000F00BE528000057
:1011D0000800F00175087902031D080076087A02FC
:1011E000031D0800F0090800F001031479087502D6
:1011F000031CF0090800F00176087A02031C0800BD
:101200007A087602031C0829790875020318080079
:10121000F0090800F001F61F2429FA1B1129F00932
:1012200008007509F7007609F800F70A0319F80AAB
:101230007909F5007A09F600F50A0319F60A770824
:10124000F9007808FA002629FA1B080076087A02C5
:10125000031C08007A087602031C322979087502FB
:1012600003180800F00908007508F7007608F80070
:101270007908FB007A08FC00F201F3017B08F50015
:101280007C08F600F901FA01E920701C4A29F501F1
:10129000F60108001030F4000310F70DF80DF20D00
:1012A000F30D7B08F2027C08031C7C0FF302771419
:1012B0000318612977107B08F2077C0803187C0F5C
:1012C000F307F40B4C297708F5007808F60072084C
:1012D000F0007308F100080076087A06FD00F61F9A
:1012E0007629F509F609F50A0319F60AFA1F7D2988
:1012F000F909FA09F90A0319FA0A3421FD1F8A29A2
:10130000F509F609F50A0319F60AF009F109F00AD8
:101310000319F10A0800F00175087918F0070310A5
:10132000F90C0310F50DF908031D8C290800750848
:10133000F7007608F8007908FB007A08FC00F20153
:10134000F3017B1CA9297708F20778080318780FA6
:10135000F3070310FC0CFB0C0310F70DF80D7B08D2
:10136000F9007C08FA00F501F601FB207018A129AC
:101370007208F0007308F100080076087A06FD0094
:10138000F61FC729F509F609F50A0319F60AFA1F27
:10139000CE29F909FA09F90A0319FA0A9721FD1F5A
:1013A000D629F009F109F00A0319F10A08007208B8
:1013B0008400831373188317F321F5008000F2076C
:1013C000EA2972088400831373188317F321F50048
:1013D000F607F207F50803190800F321840A8000D4
:1013E000F50BED29080078088A007708F70A031939
:1013F000F80A820012345234653461346C3420347B
:101400005034493443342034533469346D347534A2
:101410006C34613474346F3472340E346F346E341F
:10142000203447347234613470346834693463343E
:1014300020344C34433444340534763431342E343F
:0414400032346334AB
:02400E007A3FF7
:00000001FF
