:020000020000FC
:100000000AC0189535C01895189518951895189523
:040010001895189592
:100016005FE95DBF27D07894B89AB998C19AC0981D
:100026005BB750625BBFA99A5BB750625BBF50E09B
:100036005093600063E0C09160006C1730F4B09A92
:10004600B099B09850E050936000F4CF8895FECFF9
:10005600B19907C000000090600003940092600010
:10006600F7CF089550E058BB08950DD0F1DF5AB789
:100076005F7D5ABF00C000906200509161005FBF73
:10008600509163001895509363005FB750936100D9
:06009600009262000895D3
:00000001FF
