:020000020000FC
:0200000033C00B
:0200040018954D
:02000800189549
:02000C00189545
:02001000189541
:0200140018953D
:02001800189539
:02001C00189535
:02002000189531
:0200240018952D
:02002800189529
:02002C00189525
:02003000189521
:0200340018951D
:02003800189519
:02003C00189515
:02004000189511
:0200440018950D
:020048006DC485
:02004C00189505
:02005000189501
:020054001895FD
:020058001895F9
:02005C001895F5
:020060001895F1
:020064001895ED
:1000680058E05EBF5FEF5DBF38D43ED440D4FAD3CA
:1000780078945091C10050685093C10050E050935B
:10008800680250E050936902259AC0E0D2E0EAE69F
:10009800FEE071D650E15093A80250E05093A902B7
:1000A8008ED4C0E0D2E099275991A0E0B2E06BD598
:1000B800EEE9FEE067D6ECE6FEE064D6A4E3B2E043
:1000C80062D5E0E7FEE05ED6A0E0B2E09C93EFD018
:1000D800A0905902A3946A2C662DC5E65ED50092BD
:1000E8005902CAE3D2E099275991E2E6FEE04AD6DE
:1000F800E4E7FEE047D6AAE3B2E09C935AE35093C4
:100108009B0252E050939C02509159025093640212
:1001180050E05093650212D2D2E3E0E054D16091EE
:100128006802C09169026C1709F49BC09DD0609168
:100138005802653609F094C097D06091580266233A
:1001480009F089C091D060915802613039F5CAE34D
:10015800D2E0EAE7FEE00FD65AE350939B0252E062
:1001680050939C0251E05093A80250E05093A9028A
:1001780026D4CFE3D2E099275991EAE7FEE002D6E8
:10018800A4E3B2E000D5AFE3B2E09C935FE3509301
:100198009D0252E050939E0228D15CC060915802A3
:1001A800663009F057C060D05091580250936302EE
:1001B8002D985090630250FC2D9A60916302613033
:1001C80009F048C055E05093A502CAE3D2E0992748
:1001D8005991EEE5FEE0D6D5E0E8FEE0D3D5AAE3F6
:1001E800B2E09C935AE350939B0252E050939C02D6
:1001F80050E05093640258EF5093650250E05093DA
:100208006602509367025FD1CAE3D2E099275991F9
:10021800EEE5FEE0B7D5E6E8FEE0B4D5AAE3B2E045
:100228009C935AE350939B0252E050939C0250E0F7
:100238005093640258EF5093650250E05093660261
:100248005093670240D16090A5026A946092A5021B
:1002580009F0BBCF05C060915802613009F427D07E
:100268005ECF36CF8895FECF60916802C091690253
:1002780066D40094602C6094A62CA0FCF5CF609006
:10028800690200E0600EA62D00E011E0011FB02F0A
:100298005C9150935802A0906902A3946A2C662D31
:1002A80070E0C0E0D1E089D4009269020895C4E406
:1002B800D2E0EAE7FEE05FD554E450939B0252E0B7
:1002C80050939C0250E05093A8025093A90277D310
:1002D800C9E4D2E099275991EAE7FEE053D5A4E3AF
:1002E800B2E051D4A9E4B2E09C9359E450939D0242
:1002F80052E050939E0279D0DEEEE2E064D0C4E48E
:10030800D2E099275991E6E6FEE03CD5ECE8FEE01C
:1003180039D5A4E4B2E09C9354E450939B0252E094
:1003280050939C0250E050939D0252E050939E02DD
:100338008FD060916302613009F044C055E050935A
:10034800A602C4E4D2E099275991EEE5FEE01AD559
:10035800E0E8FEE017D5A4E4B2E09C9354E450939F
:100368009B0252E050939C0250E0509364025093D9
:1003780065025093660250936702A5D0C4E4D2E0A8
:1003880099275991EEE5FEE0FDD4E6E8FEE0FAD4BF
:10039800A4E4B2E09C9354E450939B0252E050933F
:1003A8009C0250E050936402509365025093660299
:1003B8005093670288D06090A6026A946092A60261
:1003C80009F0BFCF0895E395AEEF94E19A95F1F760
:1003D800AA95D9F7DA95C1F7EA95B1F70895D8EE55
:1003E800E3E0F1DFFA95D9F7089550919B02509315
:1003F800A20250919C025093A30251E050935A02DA
:10040800D0D0C3E5D2E0ECE9FEE0B5D453E5509393
:10041800A20252E05093A30251E050935A02C1D075
:1004280050919D025093A20250919E025093A302B4
:1004380051E050935A02B5D05FEF50938602FCD139
:100448005FEF50938602F8D15FEF50938602F4C1B4
:1004580050919B025093A20250919C025093A30288
:1004680051E050935A029DD0CEE4D2E0EAE9FEE092
:1004780082D45EE45093A20252E05093A30251E06A
:1004880050935A028ED052E250938602D5D15091A1
:100498009D025093A20250919E025093A30251E0F4
:1004A80050935A027ED052E250938602C5D15FEF34
:1004B80050938602C1D15FEF50938602BDD15FEFA2
:1004C80050938602B9C150919B025093A202509159
:1004D8009C025093A30251E050935A0262D0C3E5A4
:1004E800D2E0EAE9FEE047D453E55093A20252E095
:1004F8005093A30251E050935A0253D05091640292
:100508005093870250916502509388025091660279
:10051800509389025091670250938A0251E0509398
:100528005A0211D15FEF5093860286D15FEF509344
:10053800860282D15FEF509386027EC150919B0262
:100548005093A20250919C025093A30251E0509301
:100558005A0227D0C4E4D2E0EAE9FEE00CD454E41D
:100568005093A20252E05093A30251E050935A02D2
:1005780018D05091640250938B02509165025093A9
:100588008C0251E050935A02BFD05FEF509386021D
:1005980053D15FEF509386024FD15FEF509386029D
:1005A8004BC1A091A202B091A3025C9150936C023E
:1005B80060916C02662309F150E05093A4026091A7
:1005C8006C026130D0F06090A40263946092A4023F
:1005D8006090A202A090A4026A0CA62D6090A302CB
:1005E80000E0601EB62D5C91509386022ED160917A
:1005F800A402C0916C026C1730F3089550E0509338
:100608006B026091870270918802C0E1D7E2AED296
:10061800009400FE15C06091870270918802C0E1C5
:10062800D7E2CBD260936B020092870210928802C5
:1006380060906B0200E3600E6092860206D10AC0E9
:100648006091870270918802C8EED3E08FD200943F
:1006580000FE15C06091870270918802C8EED3E051
:10066800ACD260936B02009287021092880260906D
:100678006B0200E3600E60928602E7D00AC06091C8
:10068800870270918802C4E6D0E070D2009400FE20
:1006980015C06091870270918802C4E6D0E08DD2BF
:1006A80060936B02009287021092880260906B023E
:1006B80000E3600E60928602C8D00AC0609187028B
:1006C80070918802CAE0D0E051D2009400FE14C0B4
:1006D8006091870270918802CAE0D0E06ED2609380
:1006E8006B02009287021092880260906B0200E30E
:1006F800600E60928602A9D06090870200E3600EC7
:100708006092860299D0089550908C0257FE12C0CC
:100718005DE25093860290D060908B0270908C02BC
:1007280060947094639409F4739460928702709251
:10073800880208C050918B025093870250918C0216
:10074800509388025BCF50E05093A1026090A102C1
:1007580063946092A10209E2600EA62D00E012E007
:10076800011FB02F609187027091880280918902E1
:1007780090918A02CAE0D0E0E0E0F0E04DD20C921D
:1007880060938702709388028093890290938A020B
:1007980060918702709188028091890290918A0203
:1007A800C0E0D0E0E0E0F0E0D6D1009400FCCECF8D
:1007B8006090A10263946092A4026091A10270E02B
:1007C80080E090E06130D0F06090A4026A9460927A
:1007D800A40209E2600EA62D00E012E0011FB02F6E
:1007E8006C9000E3600E609286022FD061E070E0AA
:1007F80080E090E0C091A4026C1730F3089551E0B6
:1008080050935A0205D0509186025093620208957F
:1008180060915A02613079F45FEF509386025090EC
:10082800C00057FEFCCF5090C00057FE04C0509146
:10083800C6005093860208955090C00055FEFCCF24
:10084800509186025093C600089560915A02613013
:1008580041F45090C00055FEFCCF50918602509351
:10086800C600089550E0509360025093610250E032
:1008780050936D0250936E0250E050936F02509364
:100888007002F1E0ACDD5FEF50938602D5DF5FEFD9
:1008980050938602D1DF5FEF50938602CDDFC4E428
:1008A800D2E0E4E9FEE067D254E450939F0252E0BC
:1008B8005093A0025FEF50936A025FD050E05093CC
:1008C8005B0250935C0256E050935F0250E05093F5
:1008D8005D0251E050935E02089550E055B950E032
:1008E80058B950E05BB908955098519A089551E06D
:1008F80050935A025091C00052605093C0005FEC70
:100908005093C40050E05093C5005091C10050610D
:100918005093C10058605093C100089570D206D01A
:100928005091C0005F775093C0003DC268DF60906F
:10093800680200E0600EA62D00E011E0011FB02F54
:10094800509162025C93509168025093AA02A09061
:100958006802A3946A2C662D70E0C0E0D1E02DD126
:100968000092680260916802C09169026C1721F4D4
:100978005091AA0250936802089550919F02509393
:10098800A2025091A0025093A30251E050935A0240
:1009980008DE60916A02662329F45CE250938602BD
:1009A8004BDF0CC05FEF5093860246DF5FEF50933A
:1009B800860242DF5FEF509386023EDF089550E0E3
:1009C80050938E026091A8027091A902C0E1D7E20B
:1009D800CDD0009400FE1FC06091A8027091A902BA
:1009E800C0E1D7E2EAD06093A7020092A802109271
:1009F800A90260908E02639460928E0204E3600EF6
:100A0800A62D00E012E0011FB02F6090A70200E3BE
:100A1800600E6C920AC06091A8027091A902C8EE9B
:100A2800D3E0A4D0009400FE1FC06091A80270918A
:100A3800A902C8EED3E0C1D06093A7020092A80231
:100A48001092A90260908E02639460928E0204E371
:100A5800600EA62D00E012E0011FB02F6090A702E3
:100A680000E3600E6C920AC06091A8027091A9021E
:100A7800C4E6D0E07BD0009400FE1FC06091A802BD
:100A88007091A902C4E6D0E098D06093A7020092C2
:100A9800A8021092A90260908E02639460928E025E
:100AA80004E3600EA62D00E012E0011FB02F609055
:100AB800A70200E3600E6C920AC06091A8027091D0
:100AC800A902CAE0D0E052D0009400FE1EC0609196
:100AD800A8027091A902CAE0D0E06FD06093A70283
:100AE8000092A8021092A90260908E02639460920C
:100AF8008E0204E3600EA62D00E012E0011FB02F65
:100B08006090A70200E3600E6C9260908E0263947E
:100B180060928E0204E3600EA62D00E012E0011F31
:100B2800B02F6090A80200E3600E6C920092A802B9
:100B38001092A90250918E02509334020895002415
:100B48006C1308950094089500246C1719F47D1708
:100B580009F40094089500246C1739F47D1729F4DA
:100B68008E1719F49F1709F4009408950024D717D5
:100B780030F07D1718F06C1708F008950094089568
:100B88006D91699302C06D91960F603009F40895D4
:100B9800ED91E9936A95E1F70895CC2309F4089556
:100BA800002458E0552E660F001C0C1A616010F4E2
:100BB8006E7F0C0E5A94B9F70895862F972FEC2F55
:100BC800FD2F50E0252E50E0352E6E2F7F2FC0E0F0
:100BD800D0E0BADF00FE03C060E070E0089550E1A5
:100BE800552E8894881F991F221C331C622C6E1A5C
:100BF800262C632C6F0A362C816038F48E7F622C89
:100C08006E0E262C632C6F1E362C5A9451F7682FC3
:100C1800792F022C132C089560938F027093900201
:100C28008093910290939202C0939302D09394027E
:100C3800E0939502F093960250E0509397025093F8
:100C480098025093990250939A026091930270917E
:100C580094028091950290919602C0E0D0E0E0E085
:100C6800F0E079DF00FE05C060E070E080E090E031
:100C7800089550E2552E889450918F02551F509335
:100C88008F0250919002551F5093900250919102FB
:100C9800551F5093910250919202551F5093920202
:100CA80050919702551F5093970250919802551FE3
:100CB8005093980250919902551F50939902509160
:100CC8009A02551F50939A0260909702A09093023F
:100CD8006A186092970260909802A09094026A083D
:100CE8006092980260909902A09095026A086092BA
:100CF800990260909A02A09096026A0860929A02FD
:100D080050918F02516050938F0208F550918F02D5
:100D18005E7F50938F0260909702A09093026A0CB6
:100D28006092970260909802A09094026A1C609268
:100D3800980260909902A09095026A1C60929902AC
:100D480060909A02A09096026A1C60929A025A9445
:100D580009F091CF60918F02709190028091910279
:100D68009091920200909702109098022090990218
:100D780030909A020895C895602DE39509F4F3958B
:100D8800699306C0C895602DE39509F4F395960F0D
:100D9800603009F40895C895E39509F4F39509922C
:100DA8006A95C9F7089560907B0200917D02A09131
:100DB800790210917E02B0917A02A0907C02609133
:100DC800800270918102C0918202D09183020090CA
:100DD80084028091730290917402E0917502F091FF
:100DE800760220907702309078025090720210902C
:100DF8008502509171025FBF50917F021895509300
:100E08007F025FB75093710260927B0200937D026C
:100E1800A093790210937E02B0937A02A0927C028A
:100E28006093800270938102C0938202D093830200
:100E3800009284028093730290937402E093750287
:100E4800F0937602209277023092780250927202E2
:100E580010928502089502723000026E300002740A
:100E68003300000002204000034D687A042E7661AA
:100E78006C00047061676500042E62636F00042EC5
:100E880070636F00042E74787400012D047265730A
:100E98007400013D0120084D454741333238500068
:00000001FF
